S00F0000486561647355702E737265636B
S113000045C000004BC0000049C0000047C00000CC
S113001045C0000043C0000041C000003FC00000D4
S11300203DC000003BC0000039C0000037C00000E4
S113003035C0000033C0000031C000002FC00000F4
S11300402DC000002BC0000029C0000027C0000004
S113005025C0000023C0000021C000001FC0000014
S11300601DC000001BC0000019C0000017C0000024
S113007015C0000013C0000011C000000FC0000034
S11300800DC000000BC0000009C0000011241FBEF9
S1130090CFEFD0E4DEBFCDBF84D0A1C0B1CF8CB54B
S11300A084608CBD2C9A08952C980895CF93DF9387
S11300B01F92CDB7DEB780EB84B981E58CBD8DB5D9
S11300C089838EB58983F0DF0F90DF91CF910895F6
S11300D08EBD0DB407FEFDCF8EB50895EF92FF924D
S11300E00F931F93CF93DF93182FE62EF72EEA0179
S11300F0D6DF812FEDDF209749F00E2D1F2D80E0F4
S1130100E7DFF80181938F012197C9F7CDDFDF91F4
S1130110CF911F910F91FF90EF900895EF92FF926E
S11301200F931F93CF93DF93182FE62EF72EEA0138
S1130130B6DF80E8810FCCDF209741F00E2D1F2D14
S1130140F80181918F01C4DF2197D1F7ADDFDF91F1
S1130150CF911F910F91FF90EF900895089A109AF4
S113016083E294EF0197F1F700C00000109883E256
S113017094EF0197F1F700C00000109A0895CF930F
S1130180DF931F92CDB7DEB7198290DF41E050E0D4
S1130190BE016F5F7F4F8FE0C1DF0F90DF91CF9182
S11301A00895CF93DF93CDB7DEB727970FB6F894B2
S11301B0DEBF0FBECDBFD2DFE2DF47E050E0BE01BD
S11301C06F5F7F4F80E08ADF80E090E027960FB674
S11301D0F894DEBF0FBECDBFDF91CF910895F894A0
S10501E0FFCF4B
S9030000FC
