S00F0000486561647355702E737265636B
S1130000C7C00000EEC00000ECC00000EAC0000061
S11300105DC40000E6C00000E4C00000E2C00000CF
S1130020E0C00000DEC00000DCC00000DAC0000058
S1130030D8C00000D6C00000D4C00000D2C0000068
S1130040D0C00000CEC00000CCC00000CAC0000078
S1130050C8C00000C6C00000C4C00000C2C0000088
S1130060C0C00000BEC00000BCC00000BAC0000098
S1130070B8C00000B6C00000B4C00000B2C00000A8
S1130080B0C00000AEC00000ACC000006E616E00E5
S1130090696E660000407A10F35A00A0724E180987
S11300A00010A5D4E80000E87648170000E40B54DB
S11300B0020000CA9A3B000000E1F50500008096AA
S11300C09800000040420F000000A08601000000DC
S11300D0102700000000E803000000006400000096
S11300E000000A00000000000100000000002C765F
S11300F0D888DC674F0823DFC1DFAE59E1B1B7967A
S1130100E5E3E453C63AE651997696E8E6C28426D6
S1130110EB898C9B62ED407C6FFCEFBC9C9F40F2B2
S1130120BAA56FA5F490055A2AF75C936B6CF9672E
S11301306DC11BFCE0E40D47FEF520E6B500D0EDF3
S1130140902E0300943577050080841E080000205B
S11301504E0A000000C80C333333330F986E1283F9
S11301601141EF8D2114893BE65516CFFEE6DB18CD
S1130170D1844B381BF77C1D901DA4BBE424203292
S113018084725E228100C9F124ECA1E53D277B073E
S113019011241FBECFEFD0E4DEBFCDBF11E0A0E03D
S11301A0B1E0ECE2F8E300E00BBF02C007900D926F
S11301B0A037B107D9F721E0A0E7B1E001C01D9253
S11301C0A437B207E1F710E0C8ECD0E004C02197EF
S11301D0FE010E947E1AC73CD107C9F76AD10C946C
S11301E0141C0ECFCF93DF9300D0CDB7DEB79A8324
S11301F089838CE790E02CE730E0F90120812168C5
S1130200FC0120838AE790E02AE730E0F9012081AD
S11302102660FC0120838EE790E02EE730E0F901B0
S113022020812260FC0120830F900F90DF91CF91F9
S11302300895CF93DF9300D0CDB7DEB79A83898337
S11302408AE790E02AE730E0F90120812068FC0188
S113025020838AE790E02AE730E0F90120812064D6
S1130260FC0120830F900F90DF91CF910895CF93DD
S1130270DF9300D0CDB7DEB79A8389838AE790E015
S11302802AE730E0F90120812F77FC0120830F90C9
S11302900F90DF91CF910895EF92FF920F931F93E8
S11302A0CF93DF93CDB7DEB72D970FB6F894DEBFAB
S11302B00FBECDBF998788878AED92E09A838983A0
S11302C085E291E09C838B8388859985B2DF8AE7F8
S11302D090E0FC018081882F90E08074992721E0D0
S11302E0892B09F420E0222391F788E790E0FC01B0
S11302F02081318189819A81A901481B590BCA0146
S11303009E838D8388859985B2DF8D819E819C0132
S113031040E050E084E690E0DC010E94601A7B013A
S11303208C018B819C819C0140E050E0C801B701A5
S11303300E942F1ADA01C9018F839F818DEC989F47
S1130340812D1124869586958695882F90E0829537
S11303509295907F9827807F9827382F9F818DECE6
S1130360989F812D1124869586958695880F282F30
S1130370220F220F820F592F581B852F832B2D9666
S11303800FB6F894DEBF0FBECDBFDF91CF911F91A2
S11303900F91FF90EF9008952F923F924F925F92AA
S11303A06F927F928F929F92AF92BF92CF92DF9281
S11303B0EF92FF920F931F93CF93DF93CDB7DEB7E6
S11303C029970FB6F894DEBF0FBECDBF99878887F3
S11303D0888599850E948A10A22EB32EC42ED52E0C
S11303E0E62EF72E082F192F2A2D3B2D4C2D5D2D8F
S11303F06E2D7F2D802F912F29833A834B835C832D
S11304006D837E838F8360E0698150E05A8140E090
S11304104B8130E03C8120E02D8190E09E8180E0A2
S11304208F81262E352E442E532E622E792E882E21
S1130430A22CB32CC42CD52CE62CF72C082D192D6A
S11304402A2D3B2D4C2D5D2D6E2D7F2D802F912F30
S113045029960FB6F894DEBF0FBECDBFDF91CF91C2
S11304601F910F91FF90EF90DF90CF90BF90AF90CE
S11304709F908F907F906F905F904F903F902F90C0
S11304800895CF93DF9300D000D0CDB7DEB79A8321
S113049089837C836B832B813C8189819A81B90117
S11304A00E94F7100F900F900F900F90DF91CF9153
S11304B008950F931F93CF93DF93CDB7DEB728979B
S11304C00FB6F894DEBF0FBECDBF19821A8280E842
S11304D08B8380E88C8380E88D8380E88E8380E83A
S11304E08F8380E8888726D089819A81AB81BC81FB
S11304F08C019D0140E061E080E791E00E94961448
S11305008D819E81AF81B8858C019D0141E061E0C0
S113051080E791E00E94961483D380E090E02896CF
S11305200FB6F894DEBF0FBECDBFDF91CF911F9100
S11305300F910895CF92DF92EF92FF920F931F9342
S1130540CF93DF93CDB7DEB760970FB6F894DEBFD5
S11305500FBECDBFA0D060E071E080E791E091DFF5
S113056066D031D078946894CC24C4F8D12CCE01D0
S113057001967C010091000110910101209102017A
S113058030910301409104015091050160910601ED
S113059080E791E00E94101140E0CE010196BC0179
S11305A081E791E00E94000D60960FB6F894DEBFDB
S11305B00FBECDBFDF91CF911F910F91FF90EF90B0
S11305C0DF90CF900895CF93DF93CDB7DEB781E26C
S11305D090E021E230E0F9012081277FFC012083B3
S11305E082E290E022E230E0F90120812860FC01FF
S11305F0208388E690E028E630E0F901208121603C
S1130600FC0120838BE690E02BE630E0F9012081A9
S11306102860FC0120838BE390E02BE330E0F901B8
S113062020812160FC012083DF91CF910895CF9335
S1130630DF93CDB7DEB781E290E021E230E0F9014B
S113064020812B7FFC01208382E290E022E230E0D3
S1130650F90120812460FC01208388E690E028E6EB
S113066030E0F90120812160FC0120838BE690E0D9
S11306702BE630E0F90120812460FC0120838BE328
S113068090E02BE330E0F90120812160FC0120831C
S1130690DF91CF910895CF93DF93CDB7DEB76C97F9
S11306A00FB6F894DEBF0FBECDBF81E290E021E229
S11306B030E0F90120812160FC01208382E290E096
S11306C022E230E0F90120812160FC01208380E0F6
S11306D090E0AAE7B3E489839A83AB83BC8320E0E8
S11306E030E04AE753E469817A818B819C810E94DE
S11306F03116DC01CB018D839E83AF83B88720E064
S113070030E040E85FE36D817E818F8198850E94AF
S1130710E31488232CF481E090E09A8789873FC012
S113072020E03FEF4FE757E46D817E818F8198850C
S11307300E942D1618164CF520E030E040E251E4FA
S113074069817A818B819C810E943116DC01CB0105
S1130750BC01CD010E944F15DC01CB019A8789872A
S11307600FC089E190E09C878B878B859C850197DE
S1130770F1F79C878B8789859A8501979A87898762
S113078089859A85892B69F714C06D817E818F8153
S113079098850E944F15DC01CB019A87898789854A
S11307A09A859E878D878D859E850197F1F79E8713
S11307B08D8782E290E022E230E0F90120812E7FF1
S11307C0FC01208380E090E0AAE7B3E48F87988B54
S11307D0A98BBA8B20E030E04AE753E46F8578892F
S11307E089899A890E943116DC01CB018B8B9C8B01
S11307F0AD8BBE8B20E030E040E85FE36B897C8901
S11308008D899E890E94E31488232CF481E090E072
S1130810988F8F8B3FC020E03FEF4FE757E46B8901
S11308207C898D899E890E942D1618164CF520E02E
S113083030E040E251E46F85788989899A890E9481
S11308403116DC01CB01BC01CD010E944F15DC0146
S1130850CB01988F8F8B0FC089E190E09A8F898F9D
S1130860898D9A8D0197F1F79A8F898F8F89988D49
S11308700197988F8F8B8F89988D892B69F714C076
S11308806B897C898D899E890E944F15DC01CB017F
S1130890988F8F8B8F89988D9C8F8B8F8B8D9C8D50
S11308A00197F1F79C8F8B8F82E290E022E230E097
S11308B0F90120812160FC0120836C960FB6F89425
S11308C0DEBF0FBECDBFDF91CF9108951F920F926F
S11308D000905F000F92112400905B000F92AF9282
S11308E0BF92CF92DF92EF92FF920F931F932F93B9
S11308F03F934F935F936F937F938F939F93AF93A4
S1130900BF93EF93FF93CF93DF93CDB7DEB7A09759
S1130910DEBFCDBF84E68983998189E2989F812DCA
S1130920112482958F708B831A828091200088A372
S113093088A1882F90E088709927892B09F01EC11F
S113094081E290E021E230E0F90120812061FC01A4
S1130950208382E290E022E230E0F90120812061EC
S1130960FC01208380E090E0AAE7B3E48C839D83BC
S1130970AE83BF8320E030E04AE753E46C817D819D
S11309808E819F810E943116DC01CB018887998773
S1130990AA87BB8720E030E040E85FE3688579857B
S11309A08A859B850E94E31488232CF481E090E0DF
S11309B09D878C873FC020E03FEF4FE757E4688571
S11309C079858A859B850E942D1618164CF520E0A2
S11309D030E040E251E46C817D818E819F810E94F0
S11309E03116DC01CB01BC01CD010E944F15DC01A5
S11309F0CB019D878C870FC089E190E09F878E870C
S1130A008E859F850197F1F79F878E878C859D85BD
S1130A1001979D878C878C859D85892B69F714C0E8
S1130A20688579858A859B850E944F15DC01CB01F9
S1130A309D878C878C859D85998B888B88899989DE
S1130A400197F1F7998B888B82E290E022E230E003
S1130A50F90120812F7EFC0120836A8183E791E0E4
S1130A600E94550E9A818B81890F8A8380E090E0E1
S1130A70A8ECB2E48A8B9B8BAC8BBD8B20E030E07E
S1130A804AE753E46A897B898C899D890E943116DF
S1130A90DC01CB018E8B9F8BA88FB98F20E030E0D7
S1130AA040E85FE36E897F89888D998D0E94E31405
S1130AB088232CF481E090E09B8F8A8F3FC020E054
S1130AC03FEF4FE757E46E897F89888D998D0E94A7
S1130AD02D1618164CF520E030E040E251E46A8906
S1130AE07B898C899D890E943116DC01CB01BC0174
S1130AF0CD010E944F15DC01CB019B8F8A8F0FC063
S1130B0089E190E09D8F8C8F8C8D9D8D0197F1F7FD
S1130B109D8F8C8F8A8D9B8D01979B8F8A8F8A8D59
S1130B209B8D892B69F714C06E897F89888D998D77
S1130B300E944F15DC01CB019B8F8A8F8A8D9B8D80
S1130B409F8F8E8F8E8D9F8D0197F1F79F8F8E8F44
S1130B5089818150898381E09981992309F480E016
S1130B60882309F07ACF60E083E791E00E94550E74
S1130B7060E080E791E00E9457142DC088A1882F7F
S1130B8090E084709927892B31F580E791E004DCAB
S1130B90A22EB32EC42ED52EE62EF72E082F192FF3
S1130BA02A2D3B2D4C2D5D2D6E2D7F2D802F912FC9
S1130BB020930001309301014093020150930301FB
S1130BC060930401709305018093060161E080E75E
S1130BD091E00E945714A0960FB6F894DEBF0FBEA2
S1130BE0CDBFDF91CF91FF91EF91BF91AF919F91D5
S1130BF08F917F916F915F914F913F912F911F91B1
S1130C000F91FF90EF90DF90CF90BF90AF900F9037
S1130C1000925B000F9000925F000F901F90189558
S1130C20CF92DF92EF92FF920F931F93CF93DF93B4
S1130C30CDB7DEB7E5970FB6F894DEBF0FBECDBFD4
S1130C4080E1E7E0F1E0DE01949601900D928A954F
S1130C50E1F71D8219821A821C821B82CE018496BE
S1130C6041E0BC0181E791E0CBD6CE014496689483
S1130C70CC24C4F8D12C7C01009100011091010115
S1130C80209102013091030140910401509105012A
S1130C906091060180E791E00E941011CE01449614
S1130CA040E0BC0181E791E0ABD68A81882F90E0D7
S1130CB001962AE030E0B9010E941C1A8A838A81D5
S1130CC0882319F48981809589838981882381F413
S1130CD081E48CA38CE48DA382E58EA38DE48FA3A1
S1130CE08FE488AB80E589AB84E58AAB83E58BAB85
S1130CF08D818823A1F489818F3F39F58FE58CA3F9
S1130D008FE58DA38FE58EA38FE58FA38FE488AB4A
S1130D1080E589AB84E58AAB83E58BAB16C08D8116
S1130D20813099F489818F3F81F48FE58CA38FE51D
S1130D308DA38FE58EA38FE58FA383E288AB83E237
S1130D4089AB83E28AAB83E28BAB8B819C81892B59
S1130D50A9F482E791E0A0DA882F90E09595879531
S1130D60959587959595879595958795805D8CA79D
S1130D7082E791E091DA8F70805D8DA78B819C81F1
S1130D80AC014F5F5F4FCA019695879596958795FD
S1130D909C01ABE7B4E10E94511A9C01369527955A
S1130DA064E6629FC001639F900D11249A01281B81
S1130DB0390BC9019C838B83CE01849641E0BC012D
S1130DC081E791E01DD680E090E0A8E4B2E48E8350
S1130DD09F83A887B98720E030E04AE753E46E8117
S1130DE07F81888599850E943116DC01CB018A8731
S1130DF09B87AC87BD8720E030E040E85FE36A85ED
S1130E007B858C859D850E94E31488232CF481E0E6
S1130E1090E09F878E873FC020E03FEF4FE757E485
S1130E206A857B858C859D850E942D1618164CF548
S1130E3020E030E040E251E46E817F81888599852D
S1130E400E943116DC01CB01BC01CD010E944F157B
S1130E50DC01CB019F878E870FC089E190E0998BDD
S1130E60888B888999890197F1F7998B888B8E856E
S1130E709F8501979F878E878E859F85892B69F72C
S1130E8014C06A857B858C859D850E944F15DC0185
S1130E90CB019F878E878E859F859B8B8A8B8A89C2
S1130EA09B890197F1F79B8B8A8BDFCECF93DF93DE
S1130EB000D000D0CDB7DEB79A8389837C836B835F
S1130EC089819A81019781F48B819C81019661F4D7
S1130ED080E791E098D781E791E019D082E791E02B
S1130EE081D983E791E09DD60F900F900F900F90DA
S1130EF0DF91CF910895CF93DF93CDB7DEB76FEF36
S1130F007FEF81E090E0D2DFDF91CF910895CF931E
S1130F10DF93CDB7DEB760970FB6F894DEBF0FBE90
S1130F20CDBF988B8F878F85988981D08F8598893D
S1130F3087D280E090E0A0EAB1E489839A83AB830E
S1130F40BC8320E030E04AE753E469817A818B81F5
S1130F509C810E943116DC01CB018D839E83AF837B
S1130F60B88720E030E040E85FE36D817E818F81C7
S1130F7098850E94E31488232CF481E090E09A87FA
S1130F8089873FC020E03FEF4FE757E46D817E81C2
S1130F908F8198850E942D1618164CF520E030E0BC
S1130FA040E251E469817A818B819C810E943116EF
S1130FB0DC01CB01BC01CD010E944F15DC01CB014A
S1130FC09A8789870FC089E190E09C878B878B85FE
S1130FD09C850197F1F79C878B8789859A85019772
S1130FE09A87898789859A85892B69F714C06D81C9
S1130FF07E818F8198850E944F15DC01CB019A87F1
S1131000898789859A859E878D878D859E85019799
S1131010F1F79E878D878F85988949D460960FB69E
S1131020F894DEBF0FBECDBFDF91CF910895CF936B
S1131030DF9300D0CDB7DEB79A83898384E690E04E
S113104024E630E0F90120812F77FC0120838CEB2A
S113105090E02CEB30E0F90120812E7FFC0120830D
S113106088EB90E022E0FC01208389EB90E029EBFF
S113107030E0F90120812D7FFC0120830F900F9037
S1131080DF91CF910895CF93DF93CDB7DEB72A9741
S11310900FB6F894DEBF0FBECDBF9A8389836B83EE
S11310A089EB90E0FC0180812A960FB6F894DEBFAC
S11310B00FBECDBFDF91CF910895CF93DF9300D0C2
S11310C0CDB7DEB79A8389838CEB90E024E8FC01EA
S11310D020830F900F90DF91CF910895CF93DF93EA
S11310E000D0CDB7DEB79A8389838CEB90E024E9F6
S11310F0FC0120830F900F90DF91CF910895CF933F
S1131100DF9300D0CDB7DEB79A8389838CEB90E070
S113111024EAFC01208300008CEB90E0FC01808138
S11311208095881F8827881F8823B1F789819A8131
S113113068E0A9DF0F900F90DF91CF910895CF93CE
S1131140DF9300D000D0CDB7DEB79A8389836B8359
S11311504C838BEB90E02B81FC01208389819A8165
S1131160ACDF00008CEB90E0FC0180818095881F4F
S11311708827881F8823B1F789819A816C8183DF4E
S11311800F900F900F900F90DF91CF910895CF9310
S1131190DF9300D000D000D0CDB7DEB79C838B8323
S11311A07E836D838B819C81AADF8B819C8148E146
S11311B06CE7C5DF8B819C8148E260E4C0DF1A8262
S11311C0198213C08D819E81FC0120818B819C81B9
S11311D048E2622FB4DF8D819E8101969E838D83C8
S11311E089819A8101969A83898389819A8140971A
S11311F04CF38B819C8172DF26960FB6F894DEBF88
S11312000FBECDBFDF91CF910895CF93DF9300D070
S1131210CDB7DEB79A83898389819A8170DF89810A
S11312209A8148E16CE78BDF89819A8148E260E02A
S113123086DF89819A8148E260E881DF89819A8129
S11312404DDF0F900F90DF91CF910895CF93DF93EF
S113125000D0CDB7DEB79A83898389819A814FDF25
S113126089819A8148E16CE76ADF89819A8148E241
S113127060E065DF89819A8148E260EC60DF898102
S11312809A812CDF0F900F90DF91CF910895CF9327
S1131290DF93CDB7DEB760970FB6F894DEBF0FBE0D
S11312A0CDBF988B8F878F85988929DF8F85988903
S11312B048E16CE744DF8F85988948E260E03FDFCE
S11312C08F85988948E268E33ADF8F85988948E2F8
S11312D060E435DF8F85988901DF80E090E0A0E24B
S11312E0B1E489839A83AB83BC8320E030E04AE78E
S11312F053E469817A818B819C810E943116DC01DF
S1131300CB018D839E83AF83B88720E030E040E833
S11313105FE36D817E818F8198850E94E314882329
S11313202CF481E090E09A8789873FC020E03FEF6A
S11313304FE757E46D817E818F8198850E942D1639
S113134018164CF520E030E040E251E469817A81DE
S11313508B819C810E943116DC01CB01BC01CD0143
S11313600E944F15DC01CB019A8789870FC089E160
S113137090E09C878B878B859C850197F1F79C87F0
S11313808B8789859A8501979A87898789859A8524
S1131390892B69F714C06D817E818F8198850E94A5
S11313A04F15DC01CB019A87898789859A859E87A9
S11313B08D878D859E850197F1F79E878D878F8513
S11313C098899DDE8F85988948E16CE7B8DE8F8522
S11313D0988948E260E0B3DE8F85988948E260E04E
S11313E0AEDE8F85988948E26EE1A9DE8F85988903
S11313F048E268E1A4DE8F85988948E264E19FDED3
S11314008F85988948E262E19ADE8F85988948E25F
S113141061E095DE8F85988948E260E090DE8F85F3
S1131420988948E260E08BDE8F85988957DE609664
S11314300FB6F894DEBF0FBECDBFDF91CF910895F4
S1131440CF93DF93CDB7DEB7EA970FB6F894DEBF3C
S11314500FBECDBF9AAF89AF89AD9AAD50DE89ADCD
S11314609AAD48E16CE76BDE89AD9AAD48E260E085
S113147066DE89AD9AAD48E268E361DE80E090E023
S1131480A8ECB2E489839A83AB83BC8320E030E088
S11314904AE753E469817A818B819C810E943116E9
S11314A0DC01CB018D839E83AF83B88720E030E0DD
S11314B040E85FE36D817E818F8198850E94E3140B
S11314C088232CF481E090E09A8789873FC020E04C
S11314D03FEF4FE757E46D817E818F8198850E94AD
S11314E02D1618164CF520E030E040E251E46981F5
S11314F07A818B819C810E943116DC01CB01BC0175
S1131500CD010E944F15DC01CB019A8789870FC05A
S113151089E190E09C878B878B859C850197F1F707
S11315209C878B8789859A8501979A87898789857E
S11315309A85892B69F714C06D817E818F81988586
S11315400E944F15DC01CB019A87898789859A858A
S11315509E878D878D859E850197F1F79E878D8760
S113156089AD9AAD48E269E3EADD80E090E0A8EC59
S1131570B2E48F87988BA98BBA8B20E030E04AE7DE
S113158053E46F85788989899A890E943116DC0130
S1131590CB018B8B9C8BAD8BBE8B20E030E040E885
S11315A05FE36B897C898D899E890E94E31488237B
S11315B02CF481E090E0988F8F8B3FC020E03FEFC8
S11315C04FE757E46B897C898D899E890E942D168B
S11315D018164CF520E030E040E251E46F8578893C
S11315E089899A890E943116DC01CB01BC01CD01A5
S11315F00E944F15DC01CB01988F8F8B0FC089E1BE
S113160090E09A8F898F898D9A8D0197F1F79A8F3F
S1131610898F8F89988D0197988F8F8B8F89988D5B
S1131620892B69F714C06B897C898D899E890E94F6
S11316304F15DC01CB01988F8F8B8F89988D9C8FF0
S11316408B8F8B8D9C8D0197F1F79C8F8B8F89AD40
S11316509AAD48E264E173DD89AD9AAD48E268E78A
S11316606EDD89AD9AAD48E26DE569DD89AD9AAD6F
S113167048E26DE664DD89AD9AAD48E26CE05FDD79
S113168089AD9AAD48E261E05ADD89AD9AAD48E290
S113169066E055DD80E090E0A8ECB2E48D8F9E8F8B
S11316A0AF8FB8A320E030E04AE753E46D8D7E8D20
S11316B08F8D98A10E943116DC01CB0189A39AA3D6
S11316C0ABA3BCA320E030E040E85FE369A17AA1CA
S11316D08BA19CA10E94E31488232CF481E090E068
S11316E09EA38DA33FC020E03FEF4FE757E469A1DD
S11316F07AA18BA19CA10E942D1618164CF520E00E
S113170030E040E251E46D8D7E8D8F8D98A10E9472
S11317103116DC01CB01BC01CD010E944F15DC0167
S1131720CB019EA38DA30FC089E190E098A78FA35E
S11317308FA198A50197F1F798A78FA38DA19EA1DA
S113174001979EA38DA38DA19EA1892B69F714C037
S113175069A17AA18BA19CA10E944F15DC01CB0148
S11317609EA38DA38DA19EA19AA789A789A59AA5B9
S11317700197F1F79AA789A789AD9AADAFDC89AD36
S11317809AAD85DD89AD9AADBADC89AD9AAD48E1F3
S11317906CE7D5DC89AD9AAD48E260E0D0DC89AD78
S11317A09AAD48E269E3CBDC89AD9AAD48E261E0E9
S11317B0C6DC89AD9AAD92DC80E090E0A8ECB2E49E
S11317C08BA79CA7ADA7BEA720E030E04AE753E46F
S11317D06BA57CA58DA59EA50E943116DC01CB01CD
S11317E08FA798ABA9ABBAAB20E030E040E85FE349
S11317F06FA578A989A99AA90E94E31488232CF4D7
S113180081E090E09CAB8BAB3FC020E03FEF4FE723
S113181057E46FA578A989A99AA90E942D161816CC
S11318204CF520E030E040E251E46BA57CA58DA5A9
S11318309EA50E943116DC01CB01BC01CD010E94A2
S11318404F15DC01CB019CAB8BAB0FC089E190E061
S11318509EAB8DAB8DA99EA90197F1F79EAB8DAB85
S11318608BA99CA901979CAB8BAB8BA99CA9892BB9
S113187069F714C06FA578A989A99AA90E944F1580
S1131880DC01CB019CAB8BAB8BA99CA998AF8FAB34
S11318908FA998AD0197F1F798AF8FABEA960FB681
S11318A0F894DEBF0FBECDBFDF91CF910895CF93E3
S11318B0DF93CDB7DEB7E0970FB6F894DEBF0FBE67
S11318C0CDBF98AB8FA780E1E7E1F1E0DE011F9681
S11318D001900D928A95E1F780E1E7E2F1E0DE0103
S11318E05F9601900D928A95E1F79E01215F3F4F2B
S11318F08FA598A940E0B90183D09E01215E3F4F96
S11319008FA598A941E0B9017BD080E090E0AAE7D7
S1131910B4E489839A83AB83BC8320E030E04AE754
S113192053E469817A818B819C810E943116DC01A8
S1131930CB018D839E83AF83B88720E030E040E8FD
S11319405FE36D817E818F8198850E94E3148823F3
S11319502CF481E090E09A8789873FC020E03FEF34
S11319604FE757E46D817E818F8198850E942D1603
S113197018164CF520E030E040E251E469817A81A8
S11319808B819C810E943116DC01CB01BC01CD010D
S11319900E944F15DC01CB019A8789870FC089E12A
S11319A090E09C878B878B859C850197F1F79C87BA
S11319B08B8789859A8501979A87898789859A85EE
S11319C0892B69F714C06D817E818F8198850E946F
S11319D04F15DC01CB019A87898789859A859E8773
S11319E08D878D859E850197F1F79E878D87E0967B
S11319F00FB6F894DEBF0FBECDBFDF91CF9108952F
S1131A00CF93DF93CDB7DEB7A1970FB6F894DEBFBF
S1131A100FBECDBF9E8F8D8F78A36F8F49A389A1F1
S1131A20882309F079C08D8D9E8DEFDB80E090E0F6
S1131A30A0E2B1E489839A83AB83BC8320E030E0E5
S1131A404AE753E469817A818B819C810E94311633
S1131A50DC01CB018D839E83AF83B88720E030E027
S1131A6040E85FE36D817E818F819885ACD78823C0
S1131A702CF481E090E09A8789873DC020E03FEF15
S1131A804FE757E46D817E818F8198850E942D16E2
S1131A90181644F520E030E040E251E469817A818F
S1131AA08B819C810E943116DC01CB01BC01CD01EC
S1131AB0F6D7DC01CB019A8789870FC089E190E0D2
S1131AC09C878B878B859C850197F1F79C878B87F7
S1131AD089859A8501979A87898789859A85892B2B
S1131AE069F713C06D817E818F819885D8D7DC0119
S1131AF0CB019A87898789859A859E878D878D856D
S1131B009E850197F1F79E878D872F8D38A18D8D46
S1131B109E8DB9013CDB7CC089A1813009F078C07D
S1131B208D8D9E8D93DB80E090E0A0E2B1E48F8701
S1131B30988BA98BBA8B20E030E04AE753E46F8599
S1131B40788989899A890E943116DC01CB018B8BB3
S1131B509C8BAD8BBE8B20E030E040E85FE36B896B
S1131B607C898D899E892FD788232CF481E090E08D
S1131B70988F8F8B3DC020E03FEF4FE757E46B8990
S1131B807C898D899E890E942D16181644F520E0C3
S1131B9030E040E251E46F85788989899A890E940E
S1131BA03116DC01CB01BC01CD0179D7DC01CB01BD
S1131BB0988F8F8B0FC089E190E09A8F898F898DE0
S1131BC09A8D0197F1F79A8F898F8F89988D019754
S1131BD0988F8F8B8F89988D892B69F713C06B89A8
S1131BE07C898D899E895BD7DC01CB01988F8F8B93
S1131BF08F89988D9C8F8B8F8B8D9C8D0197F1F79E
S1131C009C8F8B8F2F8D38A18D8D9E8DB901BFDA5E
S1131C10A1960FB6F894DEBF0FBECDBFDF91CF9172
S1131C200895CF93DF9300D0CDB7DEB79A8389832D
S1131C3080EB90E020EB30E0F9012081296AFC017F
S1131C40208380E890E020E830E0F9012081296ACF
S1131C50FC01208389819A8109D089819A8160E07D
S1131C6024D00F900F90DF91CF910895CF93DF93FD
S1131C7000D0CDB7DEB79A8389838AE290E02AE266
S1131C8030E0F9012081206FFC01208381E890E09D
S1131C9021E0FC01208381EB90E021E0FC01208322
S1131CA00F900F90DF91CF9108950F931F93CF93CF
S1131CB0DF9300D01F92CDB7DEB79A8389836B83FD
S1131CC08B81853608F084E68B8308E810E08B81ED
S1131CD0882F90E0A0E0B0E0BC01CD010CD7DC017E
S1131CE0CB0120E030E048EC52E4BC01CD016FD6DA
S1131CF0DC01CB0120E030E04FE753E4BC01CD012F
S1131D00B0D7DC01CB01BC01CD01C9D6DC01CB01CC
S1131D10F801918380830AE810E08B81882F90E09A
S1131D20A0E0B0E0BC01CD01E6D6DC01CB0120E0AF
S1131D3030E048EC52E4BC01CD0149D6DC01CB01D2
S1131D4020E030E04FE753E4BC01CD018AD7DC0149
S1131D50CB01BC01CD01A3D6DC01CB01F8019183F9
S1131D60808303EB10E08B81882F90E0A0E0B0E04B
S1131D70BC01CD01C0D6DC01CB0120E030E048EC51
S1131D8052E4BC01CD0123D6DC01CB0120E030E0DC
S1131D904FE753E4BC01CD0164D7DC01CB01BC01A6
S1131DA0CD017DD6DC01CB01F801808304EB10E08A
S1131DB08B81882F90E0A0E0B0E0BC01CD019BD6E0
S1131DC0DC01CB0120E030E048EC52E4BC01CD0161
S1131DD0FED5DC01CB0120E030E04FE753E4BC0149
S1131DE0CD013FD7DC01CB01BC01CD0158D6DC01CC
S1131DF0CB01F80180830F900F900F90DF91CF916A
S1131E001F910F910895CF93DF93CDB7DEB72E972F
S1131E100FB6F894DEBF0FBECDBF9E878D871B82A1
S1131E2084E08C831D8287E0E7E3F1E0DE0116960F
S1131E3001900D928A95E1F78D859E856AD0AE0159
S1131E404D5F5F4F8D859E8521E030E06FE0EBD0E4
S1131E501A8219820EC06981AE014B5F5F4F8D8576
S1131E609E8521E030E0DFD089819A8101969A83B2
S1131E70898389819A81419770F3AE014C5F5F4FEA
S1131E808D859E8521E030E06FE0CDD09E012A5FF4
S1131E903F4F8D859E85B901AAD12E960FB6F89431
S1131EA0DEBF0FBECDBFDF91CF910895CF93DF93F7
S1131EB000D0CDB7DEB79A8389838CE490E02CE41C
S1131EC030E0F90120812460FC01208385E290E068
S1131ED025E230E0F90120812061FC0120830F908C
S1131EE00F90DF91CF910895CF93DF9300D0CDB7BA
S1131EF0DEB79A83898385E290E025E230E0F90138
S1131F0020812F7EFC0120830F900F90DF91CF91D1
S1131F100895CF93DF9300D01F92CDB7DEB79B8394
S1131F208A8384E290E020EBFC0120838CE490E03F
S1131F3021E5FC0120838DE490E0FC01808189830C
S1131F408EE490E0FC01808189838A819B81CCDFCF
S1131F500F900F900F90DF91CF910895CF93DF935F
S1131F6000D01F92CDB7DEB79A8389836B838EE44A
S1131F7090E02B81FC01208300008DE490E0FC01C3
S1131F8080818095881F8827881F8823B1F78EE475
S1131F9090E0FC0180810F900F900F90DF91CF9122
S1131FA008950F931F93CF93DF93CDB7DEB7279791
S1131FB00FB6F894DEBF0FBECDBF9A8389836B83BF
S1131FC05D834C833F832E8389819A816FDF89816E
S1131FD09A816B81C3DF0CC00C811D81C8010196FD
S1131FE09D838C8389819A8160E0B8DFF8018083C6
S1131FF08E819F819C01215031093F832E8321E0F2
S1132000892B09F420E0222339F789819A816CDF36
S113201027960FB6F894DEBF0FBECDBFDF91CF91E8
S11320201F910F910895CF93DF93CDB7DEB7299712
S11320300FB6F894DEBF0FBECDBF9C838B836D8338
S11320405F834E83398728871A821982AE014E5FD7
S11320505F4F8B819C8121E030E06FE0A2DF8A81B9
S1132060882F90E083709927892B89F08A818C7F4F
S113207089838B819C811ADF8B819C816FE86EDF61
S11320808B819C8169816ADF8B819C812DDF8B81AF
S11320909C810CDF8D8120E8280F8B819C81622F2D
S11320A05DDF0DC08E819F819C012F5F3F4F3F8379
S11320B02E83FC0120818B819C81622F4FDF8885D8
S11320C099859C01215031093987288721E0892B82
S11320D009F420E0222331F78B819C8105DF8D8177
S11320E08F3079F08B819C81E1DE8B819C816FE85C
S11320F035DF2A818B819C81622F30DF8B819C812B
S1132100F3DE29960FB6F894DEBF0FBECDBFDF9184
S1132110CF9108952F923F924F925F926F927F9248
S11321208F929F92AF92BF92CF92DF92EF92FF92E3
S11321300F931F93CF93DF93CDB7DEB760970FB69E
S1132140F894DEBF0FBECDBF988B8F87AE01485F7A
S11321505F4F8F85988927E030E060E022DF27E039
S1132160FE013896CE010196DC0101900D922A956C
S1132170E1F760E0698150E05A8140E04B8130E052
S11321803C8120E02D8190E09E8180E08F81262E8D
S1132190352E442E532E622E792E882EA22CB32C4B
S11321A0C42CD52CE62CF72C082D192D2A2D3B2DCB
S11321B04C2D5D2D6E2D7F2D802F912F60960FB6A7
S11321C0F894DEBF0FBECDBFDF91CF911F910F9169
S11321D0FF90EF90DF90CF90BF90AF909F908F9043
S11321E07F906F905F904F903F902F900895CF9382
S11321F0DF9300D000D0CDB7DEB79A8389837C8388
S11322006B834B815C8189819A8127E030E060E0B7
S11322100ADF0F900F900F900F90DF91CF910895E8
S1132220CF92DF92EF92FF920F931F93CF93DF939E
S1132230CDB7DEB7A6970FB6F894DEBF0FBECDBFFD
S11322409B8F8A8F0C8F1D8F2E8F3F8F48A359A38E
S11322506AA3FCA2EBA2DEA2CDA20DB71EB78DB776
S11322609EB77C018DA19EA101979D838C830196CD
S11322702DB73EB7281B390B0FB6F8943EBF0FBEDF
S11322802DBF8DB79EB701969F838E8380E188878B
S11322908885882F90E02DA13EA1A901481B590BE8
S11322A0CA01969587959A8789871B821A820EC0E0
S11322B02E813F818A819B81820F931F20E2FC0142
S11322C020838A819B8101969B838A832A813B8117
S11322D08DA19EA12817390758F31C861B868D8D66
S11322E0882F90E0807F99279D5F82959295907FBB
S11322F09827807F98279C018B859C85822B932B24
S11323009C878B878D8D882F90E08F709927C0963E
S11323109C018B859C85822B932B9C878B871E86A7
S11323201D868E8D882F90E0807199279D5F829500
S11323309295907F9827807F98279C018D859E8514
S1132340822B932B9E878D878E8D882F90E08F70A4
S11323509927C0969C018D859E85822B932B9E8701
S11323608D878E8D882F90E0807699278034910513
S113237019F481E4898302C080E589831F86198A60
S1132380188A8F8D82958F70880F982F990F990FC7
S1132390980F8F8D8F70890F8F878F85882339F0E1
S11323A08F85882F90E00197880F991F02C080E0E5
S11323B090E08E599E4FFC018081882F90E0998B8C
S11323C0888B8F85882341F08F85882F90E0019733
S11323D0880F991F019602C081E090E08E599E4FAC
S11323E0FC018081882F90E0982F88279C018889A0
S11323F09989822B932B998B888B8F85882331F035
S11324008F85882F90E0880F991F02C082E090E0AA
S11324108E599E4FFC018081882F90E09927882750
S113242028893989822B932B998B888B1B8A1A8A4A
S11324301C8A1D8A1E8A1F8A89A182958F70882F03
S113244090E09927880F991F9C01220F331F220FB8
S1132450331F280F391F89A1882F90E08F70992787
S1132460820F931F9B8B8A8B8A899B89892B49F0C6
S11324702A893B89C901880F991F820F931F0397EB
S113248002C080E090E0825C9E4FFC018081882F36
S113249090E0A0E0B0E08C8B9D8BAE8BBF8B8A89E3
S11324A09B89892B49F02A893B89C901880F991F87
S11324B0820F931F029702C081E090E0825C9E4FDE
S11324C0FC018081882F90E0982F8827092E000C2A
S11324D0AA0BBB0B2C893D894E895F89822B932BD8
S11324E0A42BB52B8C8B9D8BAE8BBF8B8A899B8940
S11324F0892B49F02A893B89C901880F991F820FCA
S1132500931F019702C082E090E0825C9E4FFC0121
S11325108081882F90E0A0E0B0E0DC019927882733
S11325202C893D894E895F89822B932BA42BB52B53
S11325308C8B9D8BAE8BBF8B198E188E88A1882FA8
S113254090E0807F99279D5F82959295907F982750
S1132550807F98279C01888D998D822B932B998F4E
S1132560888F88A1882F90E08F709927C0969C014E
S1132570888D998D822B932B998F888F8D859E853D
S1132580892F9927482F2E813F8189859A85820F2B
S1132590931FFC01408389859A8501964D852E8180
S11325A03F81820F931FFC01408389859A8502969F
S11325B02E813F81820F931F2AE3FC0120838985AA
S11325C09A8503962B853C85232F3327422F2E8112
S11325D03F81820F931FFC01408389859A8504966D
S11325E04B852E813F81820F931FFC014083898597
S11325F09A8505962E813F81820F931F2981FC01C4
S1132600208389859A8506962E813F81820F931FA8
S11326102DE4FC01208389859A8507962E813F81CC
S1132620820F931F20E2FC01208389859A850896F6
S113263048892E813F81820F931FFC014083898545
S11326409A85099628893989232F3327422F2E8189
S11326503F81820F931FFC01408389859A850A96E6
S11326602E813F81820F931F2CE2FC0120838985F8
S11326709A850B964C892E813F81820F931FFC0112
S1132680408389859A859C01245F3F4F8C899D896D
S1132690AE89BF89892F9A2FAB2FBB27482F8E81F4
S11326A09F81820F931FFC01408389859A859C0139
S11326B0235F3F4F8C899D89AE89BF89CD01AA27AD
S11326C0BB27482F8E819F81820F931FFC0140837B
S11326D089859A850E96488D2E813F81820F931F9E
S11326E0FC01408389859A850F96288D398D232F87
S11326F03327422F2E813F81820F931FFC01408399
S11327002E813F814DA15EA18BA19CA1B901E2D78D
S11327100FB6F894FEBE0FBEEDBE0FB6F8941EBF02
S11327200FBE0DBFA6960FB6F894DEBF0FBECDBF89
S1132730DF91CF911F910F91FF90EF90DF90CF9099
S11327400895CF93DF9300D000D0CDB7DEB79B833D
S11327508A836C8319828C818230B1F48A819B8153
S113276021E030E0AE014F5F5F4F6FE01ADC8981FA
S1132770836089838A819B8121E030E0AE014F5FD1
S11327805F4F6FE050DC31C08C818823B1F48A81C3
S11327909B8121E030E0AE014F5F5F4F6FE001DCD1
S11327A08981816089838A819B8121E030E0AE0147
S11327B04F5F5F4F6FE037DC18C08C818130A9F424
S11327C08A819B8121E030E0AE014F5F5F4F6FE073
S11327D0E8DB8981826089838A819B8121E030E002
S11327E0AE014F5F5F4F6FE01EDC0F900F900F90B4
S11327F00F90DF91CF910895CF93DF9300D000D055
S1132800CDB7DEB79B838A836C8319828C81823037
S1132810B1F48A819B8121E030E0AE014F5F5F4FCC
S11328206FE0BFDB89818C7F89838A819B8121E072
S113283030E0AE014F5F5F4F6FE0F5DB31C08C815C
S11328408823B1F48A819B8121E030E0AE014F5F9F
S11328505F4F6FE0A6DB89818E7F89838A819B81AC
S113286021E030E0AE014F5F5F4F6FE0DCDB18C06A
S11328708C818130A9F48A819B8121E030E0AE0112
S11328804F5F5F4F6FE08DDB89818D7F89838A8104
S11328909B8121E030E0AE014F5F5F4F6FE0C3DB0F
S11328A00F900F900F900F90DF91CF910895CF93D9
S11328B0DF9300D000D0CDB7DEB79B838A836C83CF
S11328C08C81882351F48A819B8121E030E0AE0120
S11328D04F5F5F4F67E065DB22C08C81813051F42C
S11328E08A819B8121E030E0AE014F5F5F4F6BE056
S11328F058DB15C08C81823091F48A819B8121E060
S113290030E0AE014F5F5F4F67E04BDB8A819B8114
S113291021E030E0AE014F5F5F4F6BE042DB0F9090
S11329200F900F900F90DF91CF9108950F931F9305
S1132930CF93DF93CDB7DEB72A970FB6F894DEBFF7
S11329400FBECDBF9C838B836D834E830F8318870B
S113295029873A8719821A828E81882319F487E09D
S1132960898305C08E81882311F08BE089838D8152
S1132970882351F4AE01495F5F4F8B819C8124E031
S113298030E069810EDB14C08D81882389F08B814E
S11329909C816E8131DFAE01495F5F4F8B819C81E9
S11329A024E030E069813FDB8B819C816E81C9DE4C
S11329B02A960FB6F894DEBF0FBECDBFDF91CF913C
S11329C01F910F910895D4D008F481E008950CD09C
S11329D00AC102D140F0F9D030F021F45F3F19F080
S11329E0EBC0511134C1EEC00FD198F39923C9F350
S11329F05523B1F3951B550BBB27AA276217730701
S1132A00840738F09F5F5F4F220F331F441FAA1FB4
S1132A10A9F333D00E2E3AF0E0E830D09150504074
S1132A20E695001CCAF729D0FE2F27D0660F771F22
S1132A30881FBB1F261737074807AB07B0E809F004
S1132A40BB0B802DBF01FF2793585F4F2AF09E3F99
S1132A50510568F0B1C0FBC05F3FECF3983EDCF376
S1132A60869577956795B795F7959F5FC9F7880F12
S1132A70911D9695879597F90895E1E0660F771F64
S1132A80881FBB1F621773078407BA0720F0621BF5
S1132A90730B840BBA0BEE1F88F7E0950895BCD036
S1132AA088F09F5790F0B92F9927B751A0F0D1F033
S1132AB0660F771F881F991F1AF0BA95C9F712C0BD
S1132AC0B13081F0C3D0B1E00895C0C0672F782F32
S1132AD08827B85F39F0B93FCCF386957795679529
S1132AE0B395D9F73EF490958095709561957F4F95
S1132AF08F4F9F4F0895E89409C097FB3EF490953B
S1132B008095709561957F4F8F4F9F4F9923A9F0C2
S1132B10F92F96E9BB279395F69587957795679551
S1132B20B795F111F8CFFAF4BB0F11F460FF1BC095
S1132B306F5F7F4F8F4F9F4F16C0882311F096E928
S1132B4011C0772321F09EE8872F762F05C06623D6
S1132B5071F096E8862F70E060E02AF09A95660F8F
S1132B60771F881FDAF7880F9695879597F9089548
S1132B70990F0008550FAA0BE0E8FEEF161617068A
S1132B80E807F907C0F012161306E407F50798F0F2
S1132B90621B730B840B950B39F40A2661F0232B0B
S1132BA0242B252B21F408950A2609F4A140A69587
S1132BB08FEF811D811D089597F99F6780E870E06C
S1132BC060E008959FEF80EC089500240A9416169F
S1132BD0170618060906089500240A941216130607
S1132BE0140605060895092E0394000C11F4882395
S1132BF052F0BB0F40F4BF2B11F460FF04C06F5FB1
S1132C007F4F8F4F9F4F089557FD9058440F551F86
S1132C1059F05F3F71F04795880F97FB991F61F05A
S1132C209F3F79F087950895121613061406551FD1
S1132C30F2CF4695F1DF08C0161617061806991F3D
S1132C40F1CF86957105610508940895E894BB2732
S1132C5066277727CB0197F908958ADF08F48FEF69
S1132C6008950BD0C0CFB1DF28F0B6DF18F095235C
S1132C7009F0A2CFA7CF1124EACFC6DFA0F3959F16
S1132C80D1F3950F50E0551F629FF001729FBB274F
S1132C90F00DB11D639FAA27F00DB11DAA1F649FFB
S1132CA06627B00DA11D661F829F2227B00DA11DAE
S1132CB0621F739FB00DA11D621F839FA00D611D34
S1132CC0221F749F3327A00D611D231F849F600D55
S1132CD0211D822F762F6A2F11249F5750408AF08E
S1132CE0E1F088234AF0EE0FFF1FBB1F661F771F1A
S1132CF0881F91505040A9F79E3F510570F05CCF5A
S1132D00A6CF5F3FECF3983EDCF386957795679505
S1132D10B795F795E7959F5FC1F7FE2B880F911D37
S1132D209695879597F908952F923F924F925F92C7
S1132D306F927F928F929F92AF92BF92CF92DF92C7
S1132D40EF92FF920F931F93CF93DF93CDB7DEB72C
S1132D5063970FB6F894DEBF0FBECDBF6C014B0175
S1132D602A01FC0117821682838181FF29C3AE01E7
S1132D704F5F5F4F3A01F6019381F40193FD859112
S1132D8093FF81914F01882309F416C3853239F4E6
S1132D9093FD859193FF81914F01853231F4B60102
S1132DA090E0ACD452012501E6CF10E0F12C20E0F4
S1132DB02032A0F48B3269F030F4803259F083323F
S1132DC069F420612CC08D3239F0803339F42160EC
S1132DD026C02260246023C0286021C027FD27C0AC
S1132DE030ED380F3A3078F426FF06C0FAE01F9F22
S1132DF0300D1124132F13C04AE0F49E300D11241A
S1132E00F32E20620CC08E3221F426FDD5C220643C
S1132E1006C08C3611F4206802C0883641F4F401EF
S1132E2093FD859193FF81914F018111C1CF9BEB5C
S1132E30980F933018F42061805E06C09BE9980FC8
S1132E40933008F064C12F7E26FF16E02F73322ED4
S1132E50853619F42064322E08C0863621F4F22F08
S1132E60F0683F2E02C01111115037FE07C01C3309
S1132E7050F4EE24E394E10E27E00BC0183038F050
S1132E8027E017E005C027E04CE3E42E02C0212F21
S1132E90E12C520144E0A40EB11CF2016081718165
S1132EA0828193810E2DA30132D32C01098100FF6D
S1132EB002C003FF07C031FC08C032FE09C030E283
S1132EC0232E07C02DE2222E04C09BE2292E01C02E
S1132ED0212C802F8C7019F0211051C28DC237FE25
S1132EE00FC0E40C04FF04C08A81813309F4EA941E
S1132EF01E1474F5F8E0FE1578F588E0E82E2CC071
S1132F0036FC2AC0812F90E0841595059CF02CEFA7
S1132F1042162FEF520674F0432D4068342E0AC037
S1132F20E2E0F0E0EC0FFD1FE10FF11D8081803342
S1132F3019F411501111F4CF37FE0EC0EE24E394AE
S1132F40E10E812F90E0481659062CF4141904C0A0
S1132F50EE24E39401C010E037FE06C014141504F7
S1132F6034F4C201019605C085E090E002C081E01E
S1132F7090E021100196112331F0212F30E02F5FD2
S1132F803F4F820F931F2F2D30E08217930714F4C5
S1132F90F81A01C0F12C832D897041F4FF2031F01F
S1132FA0B60180E290E0AAD3FA94F8CF222021F06F
S1132FB0B601822D90E0A2D333FC08C0FF2031F08B
S1132FC0B60180E390E09AD3FA94F8CF37FE58C064
S1132FD0942D852D57FE02C090E080E0292E382ED6
S1132FE020E030E0A2014E1951095D874C87A2010F
S1132FF0421953095F874E87612F70E04427552794
S1133000461B570B598B488B5FEF2516350641F449
S1133010B6018EE290E02A8B3B8B70D33B892A89E0
S1133020421453046CF04C855D854215530544F4F9
S1133030EE85FF85E20FF31FE60DF71D818101C0C8
S113304080E351E0251A31082F5F3F4F48895989A1
S11330502416350644F0B60190E02A8B3B8B4ED300
S11330602A893B89D1CF2414350439F49A819633C3
S113307018F4953311F404FF81E3B60190E045C0E0
S11330808A81813309F00F7EB60190E037D31111A4
S113309005C034FC16C085E690E015C0B6018EE28A
S11330A090E02CD382E0EE24E394E80EF301E80FE1
S11330B0F11D8081B60190E021D311508E2D99F736
S11330C0E8CF85E490E0B60119D357FC05C041145C
S11330D0510439F404FF05C05194419451088DE220
S11330E001C08BE2B60190E009D380E39AE049166F
S11330F051042CF08F5F5AE0451A5108F7CFB601FE
S113310090E0FCD2B601C201C096F8D24CC183361D
S113311031F0833779F0833509F054C020C052016F
S1133120E2E0AE0EB11CF2018081898301E010E07F
S1133130230113C05201F2E0AF0EB11CF201408032
S1133140518026FF03C0612F70E002C06FEF7FEF54
S1133150C2012A8BC8D28C012A892F7714C052014C
S1133160F2E0AF0EB11CF2014080518026FF03C093
S1133170612F70E002C06FEF7FEFC2012A8B9FD2F4
S11331808C012A892068322E23FD18C08F2D90E0EF
S11331900817190798F4B60180E290E0AFD2FA94C8
S11331A0F5CFF20137FC859137FE81912F01B601ED
S11331B090E0A4D2F110FA940150110901151105FF
S11331C081F7F1C0843611F0893651F5520127FF99
S11331D009C0F4E0AF0EB11CF201608171818281FB
S11331E093810AC0F2E0AF0EB11CF20160817181DB
S11331F0072E000C880B990B2F76322E97FF09C0EF
S113320090958095709561957F4F8F4F9F4F206863
S1133210322E2AE030E0A301A9D2E82EE6183EC0FF
S1133220022F853721F40F7E2AE030E01DC0097F8C
S11332308F3691F018F4883559F0BEC0803719F0F4
S1133240883711F0B9C0006104FF09C0046007C0E9
S113325024FF08C0066006C028E030E005C020E175
S113326030E002C020E132E0520107FF09C0F4E07F
S1133270AF0EB11CF201608171818281938108C01B
S1133280F2E0AF0EB11CF2016081718180E090E048
S1133290A3016CD2E82EE6180F77302E36FE0BC051
S11332A0332D3E7FE11650F434FE0AC032FC08C0D0
S11332B0332D3E7E05C00E2D332D03C00E2D01C0CF
S11332C0012F34FF0CC0FE01EE0DF11D808180330F
S11332D011F4397E08C032FF05C00E5F04C0832F8D
S11332E0867809F00F5F33FD12C030FF06C01E2D33
S11332F00F1518F41F0D101B0F2D0F1560F4B601D8
S113330080E290E03B8BFAD10F5F3B89F6CF0F153B
S113331010F4F01A01C0F12C34FF11C0B60180E39F
S113332090E03B8BEBD13B8932FF16C031FD03C0EB
S113333088E790E002C088E590E0B6010CC0832FD6
S1133340867851F031FF02C08BE201C080E237FD84
S11333508DE2B60190E0D2D1E11630F4B60180E3FB
S113336090E0CCD11150F8CFEA94F301EE0DF11DA9
S11333708081B60190E0C2D1E110F6CF14C0F4E030
S1133380FF1548F584E0F81A33FE1DC0211024C04F
S113339003FF27C00CE810E0F32DF0713F2EF80175
S11333A08491811121C0FF2009F4FDCCB60180E293
S11333B090E0A4D1FA94F7CFF6018681978123C0D7
S11333C08FEF9FEF20C0B60180E290E097D1FA948E
S11333D0F110F9CFDBCFF12CB601822D90E08ED124
S11333E0D7CF00E910E0D8CF31108052B60190E079
S11333F085D10F5F1F4FD3CF23E02F1510F483E047
S1133400C2CFF12CC5CF63960FB6F894DEBF0FBEC2
S1133410CDBFDF91CF911F910F91FF90EF90DF907F
S1133420CF90BF90AF909F908F907F906F905F9060
S11334304F903F902F90089597FB072E16F4009419
S113344006D077FD08D046D007FC05D03EF4909511
S113345081959F4F0895709561957F4F0895A1E2DE
S11334601A2EAA1BBB1BFD010DC0AA1FBB1FEE1FFA
S1133470FF1FA217B307E407F50720F0A21BB30B45
S1133480E40BF50B661F771F881F991F1A9469F7C1
S113349060957095809590959B01AC01BD01CF011D
S11334A00895A29FB001B39FC001A39F700D811D19
S11334B01124911DB29F700D811D1124911D089539
S11334C0F0DFA59F900DB49F900DA49F800D911DDA
S11334D011240895AA1BBB1B51E107C0AA1FBB1FDF
S11334E0A617B70710F0A61BB70B881F991F5A958C
S11334F0A9F780959095BC01CD010895EE0FFF1FAB
S11335000024001C0BBE0790F691E02D099428308E
S113351008F027E03327DA01990F311D87FD916008
S113352000966105710539F432602E5F3D9330E3F6
S11335302A95E1F708959F3F30F0803871056105C1
S113354009F03C5F3C5F3D93913008F08068911D29
S1133550DF93CF931F930F93FF92EF92192F987FCE
S11335609695E92F96959695E90FFF27E251FF4F1F
S113357099273327EE24FF24A701E7010590089437
S1133580079428F4360FE71EF81E491F511D660FD5
S1133590771F881F991F0694A1F70590079428F4B4
S11335A0E70EF81E491F561FC11D770F881F991F6C
S11335B0661F0694A1F70590079428F4F80E491F96
S11335C0561FC71FD11D880F991F661F771F0694AA
S11335D0A1F70590079420F4490F561FC71FD81F61
S11335E0990F661F771F881F0694A9F78491109579
S11335F0177041F0D695C79557954795F794E7947A
S11336001A95C1F7E4E9F0E06894159015913591A5
S11336106591959105907FE27395E118F10A430B4A
S1133620560BC90BD009C0F7E10CF11E431F561FFE
S1133630C91FD01D7EF4703311F48A95E6CFE89447
S1133640015030F0080F0AF40027021708F4202F65
S11336502395022F7A3328F079E37D932A95E9F7AD
S113366010C07D932A9589F60694979567953795AA
S113367017951794E118F10A430B560BC90BD0099F
S113368098F023957E9173957A3308F070E37C93D8
S11336902013B8F77E9170617D9330F0839571E3C8
S11336A07D9370E32A95E1F71124EF90FF900F9139
S11336B01F91CF91DF91992787FD90950895FC0183
S11336C00590615070400110D8F7809590958E0F49
S11336D09F1F0895FB01DC0102C001900D9241502F
S11336E05040D8F70895FC016150704001900110DA
S11336F0D8F7809590958E0F9F1F08950F931F9371
S1133700CF93DF93FB01238121FD03C08FEF9FEF54
S113371028C022FF16C04681578124813581421773
S1133720530744F4A081B1819D012F5F3F4F318342
S113373020838C93268137812F5F3F4F37832683E5
S113374010C0EB01092F182F0084F185E02D099595
S1133750892BE1F68E819F8101969F838E83812F31
S1133760902FDF91CF911F910F910895FA01AA270D
S1133770283051F1203181F1E8946F936E7F6E5FB0
S11337807F4F8F4F9F4FAF4FB1E03ED0B4E03CD05E
S1133790670F781F891F9A1FA11D680F791F8A1F41
S11337A0911DA11D6A0F711D811D911DA11D20D0A8
S11337B009F468943F912AE0269F11243019305D62
S11337C03193DEF6CF010895462F4770405D419353
S11337D0B3E00FD0C9F7F6CF462F4F70405D4A33A0
S11337E018F0495D31FD4052419302D0A9F7EACF68
S11337F0B4E0A6959795879577956795BA95C9F797
S113380000976105710508959B01AC010A2E069489
S11338105795479537952795BA95C9F7620F731F42
S10F3820841F951FA01D0895F894FFCF8D
S113382C50597202110416414C524D7C4241543988
S113383C33257C4F505453202D2D204865616473DF
S113384C557021202D2D20536C65657020456E76A6
S113385C69726F6D656E74000052010101004A417A
S113386C4E4645424D41524150524D41594A554E96
S113387C4A554C4155475345504F43544E4F56446B
S113388C454353554D4F545557455448465253414F
S9030000FC
