S00F0000486561647355702E737265636B
S1130000C6C00000D9C00000D7C00000D5C00000A1
S1130010D3C00000D1C00000CFC00000CDC000009C
S1130020CBC00000C9C00000C7C00000C5C00000AC
S1130030C3C00000C1C00000BFC00000BDC00000BC
S1130040BBC00000B9C00000B7C00000B5C00000CC
S1130050B3C00000B1C00000AFC00000ADC00000DC
S1130060ABC00000A9C00000A7C00000A5C00000EC
S1130070A3C00000A1C000009FC000009DC00000FC
S11300809BC0000099C0000097C000006E616E0024
S1130090696E660000407A10F35A00A0724E180987
S11300A00010A5D4E80000E87648170000E40B54DB
S11300B0020000CA9A3B000000E1F50500008096AA
S11300C09800000040420F000000A08601000000DC
S11300D0102700000000E803000000006400000096
S11300E000000A00000000000100000000002C765F
S11300F0D888DC674F0823DFC1DFAE59E1B1B7967A
S1130100E5E3E453C63AE651997696E8E6C28426D6
S1130110EB898C9B62ED407C6FFCEFBC9C9F40F2B2
S1130120BAA56FA5F490055A2AF75C936B6CF9672E
S11301306DC11BFCE0E40D47FEF520E6B500D0EDF3
S1130140902E0300943577050080841E080000205B
S11301504E0A000000C80C333333330F986E1283F9
S11301601141EF8D2114893BE65516CFFEE6DB18CD
S1130170D1844B381BF77C1D901DA4BBE424203292
S113018084725E228100C9F124ECA1E53D2711248B
S11301901FBECFEFD0E4DEBFCDBF11E0A0E0B1E0E1
S11301A0E0EEF0E100E00BBF02C007900D92A23236
S11301B0B107D9F754D292C723CFE4E6F0E08081A7
S11301C08F778083ECEBF0E080818E7F808382E008
S11301D08093B800E9EBF0E080818D7F80830895FF
S11301E084EA8093BC00ECEBF0E080818823ECF798
S11301F08091B90008956093BB0084E88093BC00AB
S1130200ECEBF0E080818823ECF78091B90008954D
S1130210EF92FF920F931F93CF93DF938C01EB0127
S1130220DFDF48E16CE7C801E6DF48E260E4C801CB
S1130230E2DF7E0180E1E80EF11C48E26991C80129
S1130240DADFCE15DF05C9F784E98093BC00DF91BE
S1130250CF911F910F91FF90EF900895CF93DF936B
S1130260EC01BEDF48E16CE7CE01C5DF48E260E0A7
S1130270CE01C1DF48E260E8CE01BDDF84E98093AE
S1130280BC00DF91CF910895CF93DF93EC01A8DFF9
S113029048E16CE7CE01AFDF48E260E0CE01ABDFBE
S11302A048E260ECCE01A7DF84E98093BC00DF91D3
S11302B0CF910895FF920F931F93CF93DF93EC0197
S11302C08FDF48E16CE7CE0196DF48E260E0CE01C3
S11302D092DF48E268E3CE018EDF48E260E4CE01BB
S11302E08ADF0CEB10E00F2EF4E9FF2EF02DF8015D
S11302F0F08283EC99E00197F1F700C00000CE0191
S11303006FDF48E16CE7CE0176DF48E260E0CE01C2
S113031072DF48E260E0CE016EDF48E26EE1CE01BA
S11303206ADF48E268E1CE0166DF48E264E1CE01BB
S113033062DF48E262E1CE015EDF48E261E0CE01C5
S11303405ADF48E260E0CE0156DF48E260E0CE01C9
S113035052DFF801F082DF91CF911F910F91FF904E
S11303600895FF920F931F93CF93DF93EC0138DF2F
S113037048E16CE7CE013FDF48E260E0CE013BDFBD
S113038048E268E3CE0137DF87EA91E60197F1F7A7
S113039000C0000048E269E3CE012DDFE7EAF1E6A0
S11303A03197F1F700C0000048E264E1CE0123DF99
S11303B048E268E7CE011FDF48E26DE5CE011BDFAE
S11303C048E26DE6CE0117DF48E26CE0CE0113DFB0
S11303D048E261E0CE010FDF48E266E0CE010BDFC8
S11303E087EA91E60197F1F700C000000CEB10E0FA
S11303F00F2EF4E9FF2EF02DF801F082CE015ADF22
S1130400CE01EEDE48E16CE7CE01F5DE48E260E0C5
S1130410CE01F1DE48E269E3CE01EDDE48E261E0BF
S1130420CE01E9DEF801F08287EA91E60197F1F75F
S113043000C00000DF91CF911F910F91FF900895AC
S1130440CF93DF93EC01B9DECE018BDF87E893E134
S11304500197F1F700C00000DF91CF9108950F9349
S11304601F93CF93DF93EC018B0141110BC0F6DE98
S113047083EC99E00197F1F700C00000B801CE01C8
S1130480C7DE0CC0413051F4FFDE83EC99E00197E4
S1130490F1F700C00000B801CE01BADEDF91CF91C0
S11304A01F910F9108950F931F93CF93DF93CDB7AF
S11304B0DEB7A2970FB6F894DEBF0FBECDBF8C0196
S11304C081E1E0E0F1E0DE01529601900D928A951F
S11304D0E1F781E1E1E1F1E0DE01119601900D9295
S11304E08A95E1F740E0BE016E5E7F4FC801B7DF39
S11304F041E0BE016F5F7F4FC801B1DF83E294EF3B
S11305000197F1F700C0000041E0BE016E5E7F4F2D
S1130510C801A5DF40E0BE016F5F7F4FC8019FDFC8
S113052083E294EF0197F1F700C0000040E0BE01C0
S11305306E5E7F4FC80193DF41E0BE016F5F7F4F66
S1130540C8018DDFA2960FB6F894DEBF0FBECDBFF3
S1130550DF91CF911F910F9108958CB584608CBD6C
S11305602C9A08952C980895CF93DF931F92CDB7BA
S1130570DEB780EB84B981E58CBD8DB589838EB5FA
S11305808983F0DF0F90DF91CF9108958EBD0DB474
S113059007FEFDCF8EB50895EF92FF920F931F9340
S11305A0CF93DF93182FE62EF72EEA01D6DF812FA3
S11305B0EDDF209749F00E2D1F2D80E0E7DFF801D5
S11305C081938F012197C9F7CDDFDF91CF911F91DF
S11305D00F91FF90EF900895EF92FF920F931F9366
S11305E0CF93DF93182FE62EF72EEA01B6DF80E8CB
S11305F0810FCCDF209741F00E2D1F2DF801819142
S11306008F01C4DF2197D1F7ADDFDF91CF911F9127
S11306100F91FF90EF900895089A109A83E294EF57
S11306200197F1F700C00000109883E294EF01975E
S1130630F1F700C00000109A0895CF93DF931F9242
S1130640CDB7DEB7198290DF41E050E0BE016F5FA5
S11306507F4F8FE0C1DF0F90DF91CF910895CF934B
S1130660DF93CDB7DEB768970FB6F894DEBF0FBE41
S1130670CDBFCE014896E4DECFDFCE01489613DF2E
S1130680DCDF47E050E0BE016F5E7F4F80E084DF37
S11306908989982F92959F70905D99838F70805D62
S11306A08A8340E0BE016F5F7F4FCE014896D7DE5C
S11306B02FE38DE093E0215080409040E1F700C0AB
S11306C00000DFCF2F923F924F925F926F927F9202
S11306D08F929F92AF92BF92CF92DF92EF92FF924E
S11306E00F931F93CF93DF93CDB7DEB763970FB606
S11306F0F894DEBF0FBECDBF6C014B012A01FC0193
S113070017821682838181FF29C3AE014F5F5F4F39
S11307103A01F6019381F40193FD859193FF819150
S11307204F01882309F416C3853239F493FD85916A
S113073093FF81914F01853231F4B60190E038D4B2
S113074052012501E6CF10E0F12C20E02032A0F484
S11307508B3269F030F4803259F0833269F42061CD
S11307602CC08D3239F0803339F4216026C02260E8
S1130770246023C0286021C027FD27C030ED380F36
S11307803A3078F426FF06C0FAE01F9F300D11249A
S1130790132F13C04AE0F49E300D1124F32E20626F
S11307A00CC08E3221F426FDD5C2206406C08C36DE
S11307B011F4206802C0883641F4F40193FD859158
S11307C093FF81914F018111C1CF9BEB980F93301F
S11307D018F42061805E06C09BE9980F933008F0FE
S11307E064C12F7E26FF16E02F73322E853619F44E
S11307F02064322E08C0863621F4F22FF0683F2E92
S113080002C01111115037FE07C01C3350F4EE24FE
S1130810E394E10E27E00BC0183038F027E017E02E
S113082005C027E04CE3E42E02C0212FE12C520145
S113083044E0A40EB11CF201608171818281938134
S11308400E2DA301C7D22C01098100FF02C003FFB2
S113085007C031FC08C032FE09C030E2232E07C0B5
S11308602DE2222E04C09BE2292E01C0212C802FD0
S11308708C7019F0211051C28DC237FE0FC0E40CE8
S113088004FF04C08A81813309F4EA941E1474F5C8
S1130890F8E0FE1578F588E0E82E2CC036FC2AC076
S11308A0812F90E0841595059CF02CEF42162FEFD4
S11308B0520674F0432D4068342E0AC0E2E0F0E0A2
S11308C0EC0FFD1FE10FF11D8081803319F41150ED
S11308D01111F4CF37FE0EC0EE24E394E10E812F04
S11308E090E0481659062CF4141904C0EE24E3943D
S11308F001C010E037FE06C01414150434F4C2011C
S1130900019605C085E090E002C081E090E02110EE
S11309100196112331F0212F30E02F5F3F4F820FDA
S1130920931F2F2D30E08217930714F4F81A01C097
S1130930F12C832D897041F4FF2031F0B60180E25F
S113094090E036D3FA94F8CF222021F0B601822D1C
S113095090E02ED333FC08C0FF2031F0B60180E3D1
S113096090E026D3FA94F8CF37FE58C0942D852D05
S113097057FE02C090E080E0292E382E20E030E0BF
S1130980A2014E1951095D874C87A20142195309EE
S11309905F874E87612F70E044275527461B570B0E
S11309A0598B488B5FEF2516350641F4B6018EE26C
S11309B090E02A8B3B8BFCD23B892A894214530456
S11309C06CF04C855D854215530544F4EE85FF8536
S11309D0E20FF31FE60DF71D818101C080E351E0B2
S11309E0251A31082F5F3F4F488959892416350647
S11309F044F0B60190E02A8B3B8BDAD22A893B89FA
S1130A00D1CF2414350439F49A81963318F49533EC
S1130A1011F404FF81E3B60190E045C08A8181337B
S1130A2009F00F7EB60190E0C3D2111105C034FC69
S1130A3016C085E690E015C0B6018EE290E0B8D20B
S1130A4082E0EE24E394E80EF301E80FF11D8081C7
S1130A50B60190E0ADD211508E2D99F7E8CF85E420
S1130A6090E0B601A5D257FC05C04114510439F4F5
S1130A7004FF05C05194419451088DE201C08BE2FA
S1130A80B60190E095D280E39AE0491651042CF027
S1130A908F5F5AE0451A5108F7CFB60190E088D22B
S1130AA0B601C201C09684D24CC1833631F083377B
S1130AB079F0833509F054C020C05201E2E0AE0E53
S1130AC0B11CF2018081898301E010E0230113C08D
S1130AD05201F2E0AF0EB11CF2014080518026FFBA
S1130AE003C0612F70E002C06FEF7FEFC2012A8B59
S1130AF054D28C012A892F7714C05201F2E0AF0E30
S1130B00B11CF2014080518026FF03C0612F70E0C8
S1130B1002C06FEF7FEFC2012A8B34D28C012A8985
S1130B202068322E23FD18C08F2D90E00817190776
S1130B3098F4B60180E290E03BD2FA94F5CFF2014A
S1130B4037FC859137FE81912F01B60190E030D2B8
S1130B50F110FA94015011090115110581F7F1C042
S1130B60843611F0893651F5520127FF09C0F4E0AB
S1130B70AF0EB11CF20160817181828193810AC040
S1130B80F2E0AF0EB11CF20160817181072E000CFE
S1130B90880B990B2F76322E97FF09C0909580957C
S1130BA0709561957F4F8F4F9F4F2068322E2AE0BA
S1130BB030E0A30135D2E82EE6183EC0022F853777
S1130BC021F40F7E2AE030E01DC0097F8F3691F0BA
S1130BD018F4883559F0BEC0803719F0883711F001
S1130BE0B9C0006104FF09C0046007C024FF08C045
S1130BF0066006C028E030E005C020E130E002C015
S1130C0020E132E0520107FF09C0F4E0AF0EB11C4D
S1130C10F201608171818281938108C0F2E0AF0E9C
S1130C20B11CF2016081718180E090E0A301F8D1F0
S1130C30E82EE6180F77302E36FE0BC0332D3E7F9C
S1130C40E11650F434FE0AC032FC08C0332D3E7E57
S1130C5005C00E2D332D03C00E2D01C0012F34FF0E
S1130C600CC0FE01EE0DF11D8081803311F4397E3C
S1130C7008C032FF05C00E5F04C0832F867809F0D8
S1130C800F5F33FD12C030FF06C01E2D0F1518F480
S1130C901F0D101B0F2D0F1560F4B60180E290E0BC
S1130CA03B8B86D10F5F3B89F6CF0F1510F4F01AFA
S1130CB001C0F12C34FF11C0B60180E390E03B8BFE
S1130CC077D13B8932FF16C031FD03C088E790E03D
S1130CD002C088E590E0B6010CC0832F867851F0FD
S1130CE031FF02C08BE201C080E237FD8DE2B60124
S1130CF090E05ED1E11630F4B60180E390E058D183
S1130D001150F8CFEA94F301EE0DF11D8081B60184
S1130D1090E04ED1E110F6CF14C0F4E0FF1548F591
S1130D2084E0F81A33FE1DC0211024C003FF27C03D
S1130D300CE810E0F32DF0713F2EF801849181113D
S1130D4021C0FF2009F4FDCCB60180E290E030D14F
S1130D50FA94F7CFF6018681978123C08FEF9FEF36
S1130D6020C0B60180E290E023D1FA94F110F9CFCB
S1130D70DBCFF12CB601822D90E01AD1D7CF00E958
S1130D8010E0D8CF31108052B60190E011D10F5F3E
S1130D901F4FD3CF23E02F1510F483E0C2CFF12CE3
S1130DA0C5CF63960FB6F894DEBF0FBECDBFDF91FB
S1130DB0CF911F910F91FF90EF90DF90CF90BF9054
S1130DC0AF909F908F907F906F905F904F903F90E7
S1130DD02F900895283008F027E03327DA01990F7F
S1130DE0311D87FD916000966105710539F432600B
S1130DF02E5F3D9330E32A95E1F708959F3F30F04D
S1130E0080387105610509F03C5F3C5F3D9391308A
S1130E1008F08068911DDF93CF931F930F93FF9287
S1130E20EF92192F987F9695E92F96959695E90F4D
S1130E30FF27E251FF4F99273327EE24FF24A70110
S1130E40E70105900894079428F4360FE71EF81E6E
S1130E50491F511D660F771F881F991F0694A1F71C
S1130E600590079428F4E70EF81E491F561FC11D6C
S1130E70770F881F991F661F0694A1F705900794A2
S1130E8028F4F80E491F561FC71FD11D880F991F3C
S1130E90661F771F0694A1F70590079420F4490F65
S1130EA0561FC71FD81F990F661F771F881F0694E8
S1130EB0A9F784911095177041F0D695C795579569
S1130EC04795F794E7941A95C1F7E4E9F0E068943C
S1130ED01590159135916591959105907FE27395E3
S1130EE0E118F10A430B560BC90BD009C0F7E10C0A
S1130EF0F11E431F561FC91FD01D7EF4703311F419
S1130F008A95E6CFE894015030F0080F0AF40027E0
S1130F10021708F4202F2395022F7A3328F079E35F
S1130F207D932A95E9F710C07D932A9589F6069456
S1130F3097956795379517951794E118F10A430B20
S1130F40560BC90BD00998F023957E9173957A338B
S1130F5008F070E37C932013B8F77E9170617D9361
S1130F6030F0839571E37D9370E32A95E1F71124C2
S1130F70EF90FF900F911F91CF91DF91992787FDFB
S1130F8090950895FC010590615070400110D8F7C8
S1130F90809590958E0F9F1F0895FC0161507040BD
S1130FA001900110D8F7809590958E0F9F1F08959A
S1130FB00F931F93CF93DF93FB01238121FD03C084
S1130FC08FEF9FEF28C022FF16C0468157812481EE
S1130FD035814217530744F4A081B1819D012F5FED
S1130FE03F4F318320838C93268137812F5F3F4F7E
S1130FF03783268310C0EB01092F182F0084F18555
S1131000E02D0995892BE1F68E819F8101969F83BE
S11310108E83812F902FDF91CF911F910F9108958F
S1131020FA01AA27283051F1203181F1E8946F9315
S11310306E7F6E5F7F4F8F4F9F4FAF4FB1E03ED0BB
S1131040B4E03CD0670F781F891F9A1FA11D680F59
S1131050791F8A1F911DA11D6A0F711D811D911D8C
S1131060A11D20D009F468943F912AE0269F112401
S11310703019305D3193DEF6CF010895462F477065
S1131080405D4193B3E00FD0C9F7F6CF462F4F70C0
S1131090405D4A3318F0495D31FD4052419302D01E
S11310A0A9F7EACFB4E0A6959795879577956795C4
S11310B0BA95C9F700976105710508959B01AC01C4
S11310C00A2E06945795479537952795BA95C9F7EB
S11310D0620F731F841F951FA01D0895F894FFCFFE
S11310E02D212054455354204C494E452031202174
S11310F000212054455354204C494E452032202190
S10511002D00BC
S9030000FC
