S00F0000486561647355702E737265636B
S1130000C6C00000DAC00000D8C00000D6C000009E
S1130010D4C00000D2C00000D0C00000CEC0000098
S1130020CCC00000CAC00000C8C00000C6C00000A8
S1130030C4C00000C2C00000C0C00000BEC00000B8
S1130040BCC00000BAC00000B8C00000B6C00000C8
S1130050B4C00000B2C00000B0C00000AEC00000D8
S1130060ACC00000AAC00000A8C00000A6C00000E8
S1130070A4C00000A2C00000A0C000009EC00000F8
S11300809CC000009AC0000098C000006E616E0021
S1130090696E660000407A10F35A00A0724E180987
S11300A00010A5D4E80000E87648170000E40B54DB
S11300B0020000CA9A3B000000E1F50500008096AA
S11300C09800000040420F000000A08601000000DC
S11300D0102700000000E803000000006400000096
S11300E000000A00000000000100000000002C765F
S11300F0D888DC674F0823DFC1DFAE59E1B1B7967A
S1130100E5E3E453C63AE651997696E8E6C28426D6
S1130110EB898C9B62ED407C6FFCEFBC9C9F40F2B2
S1130120BAA56FA5F490055A2AF75C936B6CF9672E
S11301306DC11BFCE0E40D47FEF520E6B500D0EDF3
S1130140902E0300943577050080841E080000205B
S11301504E0A000000C80C333333330F986E1283F9
S11301601141EF8D2114893BE65516CFFEE6DB18CD
S1130170D1844B381BF77C1D901DA4BBE424203292
S113018084725E228100C9F124ECA1E53D2711248B
S11301901FBECFEFD0E4DEBFCDBF11E0A0E0B1E0E1
S11301A0EAEEF6E200E00BBF02C007900D92A23225
S11301B0B107D9F7ABD10C94731322CF2F923F928E
S11301C04F925F926F927F928F929F92AF92BF9263
S11301D0CF92DF92EF92FF920F931F93CF93DF930F
S11301E0CDB7DEB729970FB6F894DEBF0FBECDBFEB
S11301F099878887888599850E94810BA22EB32EC2
S1130200C42ED52EE62EF72E082F192F2A2D3B2D7E
S11302104C2D5D2D6E2D7F2D802F912F29833A83B8
S11302204B835C836D837E838F8360E0698150E0C0
S11302305A8140E04B8130E03C8120E02D8190E008
S11302409E8180E08F81262E352E442E532E622EE1
S1130250792E882EA22CB32CC42CD52CE62CF72C6A
S1130260082D192D2A2D3B2D4C2D5D2D6E2D7F2D06
S1130270802F912F29960FB6F894DEBF0FBECDBF05
S1130280DF91CF911F910F91FF90EF90DF90CF906E
S1130290BF90AF909F908F907F906F905F904F90A2
S11302A03F902F900895CF93DF9300D000D0CDB727
S11302B0DEB79A8389837C836B832B813C8189811C
S11302C09A81B9010E94EE0B0F900F900F900F903E
S11302D0DF91CF910895CF93DF93CDB7DEB76C97BD
S11302E00FB6F894DEBF0FBECDBF81E290E021E2ED
S11302F030E0F90120812160FC01208382E290E05A
S113030022E230E0F90120812160FC01208380E0B9
S113031090E0AAE7B3E489839A83AB83BC8320E0AB
S113032030E04AE753E469817A818B819C810E94A1
S1130330D30DDC01CB018D839E83AF83B88720E08E
S113034030E040E85FE36D817E818F8198850E9473
S1130350520D88232CF481E090E09A8789873FC06E
S113036020E03FEF4FE757E46D817E818F819885D0
S11303700E94CF0D18164CF520E030E040E251E425
S113038069817A818B819C810E94D30DDC01CB0130
S1130390BC01CD010E94560DDC01CB019A878987EF
S11303A00FC089E190E09C878B878B859C850197A2
S11303B0F1F79C878B8789859A8501979A87898726
S11303C089859A85892B69F714C06D817E818F8117
S11303D098850E94560DDC01CB019A87898789850F
S11303E09A859E878D878D859E850197F1F79E87D7
S11303F08D8782E290E022E230E0F90120812E7FB5
S1130400FC01208380E090E0AAE7B3E48F87988B17
S1130410A98BBA8B20E030E04AE753E46F857889F2
S113042089899A890E94D30DDC01CB018B8B9C8B2B
S1130430AD8BBE8B20E030E040E85FE36B897C89C4
S11304408D899E890E94520D88232CF481E090E0CE
S1130450988F8F8B3FC020E03FEF4FE757E46B89C5
S11304607C898D899E890E94CF0D18164CF520E059
S113047030E040E251E46F85788989899A890E9445
S1130480D30DDC01CB01BC01CD010E94560DDC0172
S1130490CB01988F8F8B0FC089E190E09A8F898F61
S11304A0898D9A8D0197F1F79A8F898F8F89988D0D
S11304B00197988F8F8B8F89988D892B69F714C03A
S11304C06B897C898D899E890E94560DDC01CB0144
S11304D0988F8F8B8F89988D9C8F8B8F8B8D9C8D14
S11304E00197F1F79C8F8B8F82E290E022E230E05B
S11304F0F90120812160FC0120836C960FB6F894E9
S1130500DEBF0FBECDBFDF91CF910895AF92BF92F2
S1130510CF92DF92EF92FF920F931F93CF93DF93CB
S1130520CDB7DEB7A7970FB6F894DEBF0FBECDBF29
S1130530CE014696BCD0CE014796BDD780E58F87C5
S113054089E5888B82E7898BC6DECE01469661D524
S11305509E01215F3F4FCE014796B901A4DECE0133
S113056047962CDEA22EB32EC42ED52EE62EF72EC1
S1130570082F192F2A2D3B2D4C2D5D2D6E2D7F2DEF
S1130580802F912F2F87388B498B5A8B6B8B7C8BC9
S11305908D8B9E01285E3F4FCE0147966894CC24F4
S11305A0C4F8D12C79010F85188929893A894B8996
S11305B05C896D890E94070C9E01285E3F4FCE0125
S11305C0469640E0B9016CD680E090E0AAE7B4E436
S11305D089839A83AB83BC8320E030E04AE753E409
S11305E069817A818B819C810E94D30DDC01CB01CE
S11305F08D839E83AF83B88720E030E040E85FE3DB
S11306006D817E818F8198850E94520D88232CF400
S113061081E090E09A8789873FC020E03FEF4FE771
S113062057E46D817E818F8198850E94CF0D1816C5
S11306304CF520E030E040E251E469817A818B811D
S11306409C810E94D30DDC01CB01BC01CD010E9431
S1130650560DDC01CB019A8789870FC089E190E0B0
S11306609C878B878B859C850197F1F79C878B876B
S113067089859A8501979A87898789859A85892B9F
S113068069F714C06D817E818F8198850E94560D13
S1130690DC01CB019A87898789859A859E878D8716
S11306A08D859E850197F1F79E878D8758CFCF93CF
S11306B0DF93CDB7DEB760970FB6F894DEBF0FBEF9
S11306C0CDBF988B8F878F8598897ED08F859889A9
S11306D081D280E090E0A0EAB1E489839A83AB837D
S11306E0BC8320E030E04AE753E469817A818B815E
S11306F09C810E94D30DDC01CB018D839E83AF834B
S1130700B88720E030E040E85FE36D817E818F812F
S113071098850E94520D88232CF481E090E09A87FA
S113072089873FC020E03FEF4FE757E46D817E812A
S11307308F8198850E94CF0D18164CF520E030E08B
S113074040E251E469817A818B819C810E94D30DBE
S1130750DC01CB01BC01CD010E94560DDC01CB01B3
S11307609A8789870FC089E190E09C878B878B8566
S11307709C850197F1F79C878B8789859A850197DA
S11307809A87898789859A85892B69F714C06D8131
S11307907E818F8198850E94560DDC01CB019A875A
S11307A0898789859A859E878D878D859E85019702
S11307B0F1F79E878D8760960FB6F894DEBF0FBE63
S11307C0CDBFDF91CF910895CF93DF9300D0CDB704
S11307D0DEB79A83898384E690E024E630E0F90169
S11307E020812F77FC0120838CEB90E02CEB30E010
S11307F0F90120812E7FFC01208388EB90E022E028
S1130800FC01208389EB90E029EB30E0F9012081A1
S11308102D7FFC0120830F900F90DF91CF910895DD
S1130820CF93DF93CDB7DEB72A970FB6F894DEBF28
S11308300FBECDBF9A8389836B8389EB90E0FC0163
S113084080812A960FB6F894DEBF0FBECDBFDF912C
S1130850CF910895CF93DF9300D0CDB7DEB79A83BD
S113086089838CEB90E024E8FC0120830F900F90A7
S1130870DF91CF910895CF93DF9300D0CDB7DEB74A
S11308809A8389838CEB90E024E9FC0120830F9008
S11308900F90DF91CF910895CF93DF9300D0CDB720
S11308A0DEB79A8389838CEB90E024EAFC012083F1
S11308B000008CEB90E0FC0180818095881F8827E4
S11308C0881F8823B1F789819A8168E0A9DF0F9096
S11308D00F90DF91CF910895CF93DF9300D000D094
S11308E0CDB7DEB79A8389836B834C838BEB90E01F
S11308F02B81FC01208389819A81ACDF00008CEB81
S113090090E0FC0180818095881F8827881F8823B8
S1130910B1F789819A816C8183DF0F900F900F90DA
S11309200F90DF91CF910895CF93DF9300D000D043
S113093000D0CDB7DEB79C838B837E836D838B81A0
S11309409C81AADF8B819C8148E16CE7C5DF8B81A8
S11309509C8148E260E4C0DF1A82198213C08D8151
S11309609E81FC0120818B819C8148E2622FB4DF4F
S11309708D819E8101969E838D8389819A810196C2
S11309809A83898389819A8140974CF38B819C81D6
S113099072DF26960FB6F894DEBF0FBECDBFDF918F
S11309A0CF910895CF93DF9300D0CDB7DEB79A836C
S11309B0898389819A8170DF89819A8148E16CE712
S11309C08BDF89819A8148E260E086DF89819A81A0
S11309D048E260E881DF89819A814DDF0F900F90B2
S11309E0DF91CF910895CF93DF9300D0CDB7DEB7D9
S11309F09A83898389819A814FDF89819A8148E129
S1130A006CE76ADF89819A8148E260E065DF898169
S1130A109A8148E260EC60DF89819A812CDF0F9033
S1130A200F90DF91CF910895CF93DF93CDB7DEB7C9
S1130A3060970FB6F894DEBF0FBECDBF988B8F873B
S1130A408F85988929DF8F85988948E16CE744DF91
S1130A508F85988948E260E03FDF8F85988948E276
S1130A6068E33ADF8F85988948E260E435DF8F8553
S1130A70988901DF80E090E0A0E2B1E489839A8361
S1130A80AB83BC8320E030E04AE753E469817A8198
S1130A908B819C810E94D30DDC01CB018D839E83CD
S1130AA0AF83B88720E030E040E85FE36D817E816A
S1130AB08F819885F7D788232CF481E090E09A877A
S1130AC089873DC020E03FEF4FE757E46D817E8189
S1130AD08F8198850E94CF0D181644F520E030E0F0
S1130AE040E251E469817A818B819C810E94D30D1B
S1130AF0DC01CB01BC01CD01D9D7DC01CB019A8744
S1130B0089870FC089E190E09C878B878B859C85C2
S1130B100197F1F79C878B8789859A8501979A8736
S1130B20898789859A85892B69F713C06D817E81B0
S1130B308F819885BBD7DC01CB019A87898789850A
S1130B409A859E878D878D859E850197F1F79E876F
S1130B508D878F859889A0DE8F85988948E16CE719
S1130B60BBDE8F85988948E260E0B6DE8F85988980
S1130B7048E260E0B1DE8F85988948E26EE1ACDE40
S1130B808F85988948E268E1A7DE8F85988948E2D5
S1130B9064E1A2DE8F85988948E262E19DDE8F855B
S1130BA0988948E261E098DE8F85988948E260E0A0
S1130BB093DE8F85988948E260E08EDE8F85988980
S1130BC05ADE60960FB6F894DEBF0FBECDBFDF913C
S1130BD0CF910895CF93DF93CDB7DEB7EA970FB6E1
S1130BE0F894DEBF0FBECDBF9AAF89AF89AD9AAD81
S1130BF053DE89AD9AAD48E16CE76EDE89AD9AADFE
S1130C0048E260E069DE89AD9AAD48E268E364DEFB
S1130C1080E090E0A8ECB2E489839A83AB83BC8340
S1130C2020E030E04AE753E469817A818B819C813A
S1130C30BAD7DC01CB018D839E83AF83B88720E0D4
S1130C4030E040E85FE36D817E818F8198852AD70B
S1130C5088232CF481E090E09A8789873BC020E0C8
S1130C603FEF4FE757E46D817E818F81988597D759
S1130C7018163CF520E030E040E251E469817A81C5
S1130C808B819C8190D7DC01CB01BC01CD010ED7B7
S1130C90DC01CB019A8789870FC089E190E09C87AA
S1130CA08B878B859C850197F1F79C878B8789853A
S1130CB09A8501979A87898789859A85892B69F707
S1130CC013C06D817E818F819885F0D6DC01CB01C4
S1130CD09A87898789859A859E878D878D859E8544
S1130CE00197F1F79E878D8789AD9AAD48E269E354
S1130CF0F3DD80E090E0A8ECB2E48F87988BA98BB9
S1130D00BA8B20E030E04AE753E46F85788989891B
S1130D109A8949D7DC01CB018B8B9C8BAD8BBE8B25
S1130D2020E030E040E85FE36B897C898D899E890F
S1130D30B9D688232CF481E090E0988F8F8B3BC048
S1130D4020E03FEF4FE757E46B897C898D899E89CA
S1130D5026D718163CF520E030E040E251E46F85D8
S1130D60788989899A891FD7DC01CB01BC01CD011F
S1130D709DD6DC01CB01988F8F8B0FC089E190E069
S1130D809A8F898F898D9A8D0197F1F79A8F898F20
S1130D908F89988D0197988F8F8B8F89988D892B48
S1130DA069F713C06B897C898D899E897FD6DC01A4
S1130DB0CB01988F8F8B8F89988D9C8F8B8F8B8D88
S1130DC09C8D0197F1F79C8F8B8F89AD9AAD48E28A
S1130DD064E182DD89AD9AAD48E268E77DDD89ADE5
S1130DE09AAD48E26DE578DD89AD9AAD48E26DE6ED
S1130DF073DD89AD9AAD48E26CE06EDD89AD9AADE4
S1130E0048E261E069DD89AD9AAD48E266E064DDFF
S1130E1080E090E0A8ECB2E48D8F9E8FAF8FB8A3F2
S1130E2020E030E04AE753E46D8D7E8D8F8D98A1EC
S1130E30BAD6DC01CB0189A39AA3ABA3BCA320E05F
S1130E4030E040E85FE369A17AA18BA19CA12AD696
S1130E5088232CF481E090E09EA38DA33BC020E086
S1130E603FEF4FE757E469A17AA18BA19CA197D6E4
S1130E7018163CF520E030E040E251E46D8D7E8DA3
S1130E808F8D98A190D6DC01CB01BC01CD010ED68B
S1130E90DC01CB019EA38DA30FC089E190E098A74C
S1130EA08FA38FA198A50197F1F798A78FA38DA180
S1130EB09EA101979EA38DA38DA19EA1892B69F765
S1130EC013C069A17AA18BA19CA1F0D5DC01CB014F
S1130ED09EA38DA38DA19EA19AA789A789A59AA552
S1130EE00197F1F79AA789A789AD9AADC4DC89ADBA
S1130EF09AAD9ADD89AD9AADCFDC89AD9AAD48E162
S1130F006CE7EADC89AD9AAD48E260E0E5DC89ADE6
S1130F109AAD48E269E3E0DC89AD9AAD48E261E06C
S1130F20DBDC89AD9AADA7DC80E090E0A8ECB2E40C
S1130F308BA79CA7ADA7BEA720E030E04AE753E407
S1130F406BA57CA58DA59EA52ED6DC01CB018FA714
S1130F5098ABA9ABBAAB20E030E040E85FE36FA503
S1130F6078A989A99AA99ED588232CF481E090E0D8
S1130F709CAB8BAB3BC020E03FEF4FE757E46FA542
S1130F8078A989A99AA90BD618163CF520E030E077
S1130F9040E251E46BA57CA58DA59EA504D6DC0199
S1130FA0CB01BC01CD0182D5DC01CB019CAB8BAB69
S1130FB00FC089E190E09EAB8DAB8DA99EA90197EE
S1130FC0F1F79EAB8DAB8BA99CA901979CAB8BAB26
S1130FD08BA99CA9892B69F713C06FA578A989A946
S1130FE09AA964D5DC01CB019CAB8BAB8BA99CA9E2
S1130FF098AF8FAB8FA998AD0197F1F798AF8FABEE
S1131000EA960FB6F894DEBF0FBECDBFDF91CF9145
S11310100895CF93DF93CDB7DEB7C054D1090FB68F
S1131020F894DEBF0FBECDBF9E01215C3F4FF90196
S11310309183808381E1E0E0F1E0DE015D9601903F
S11310400D928A95E1F781E1E1E1F1E0DE019E96FE
S113105001900D928A95E1F79E01235E3F4FCE01E8
S1131060CF96FC018081918140E0B90119D19E01A4
S1131070225D3F4FCE01CF96FC018081918141E0FA
S1131080B9010ED180E090E0AAE7B3E489839A83A2
S1131090AB83BC8320E030E04AE753E469817A8182
S11310A08B819C8180D5DC01CB018D839E83AF83B2
S11310B0B88720E030E040E85FE36D817E818F8176
S11310C09885F0D488232CF481E090E09A8789876E
S11310D03BC020E03FEF4FE757E46D817E818F8175
S11310E098855DD518163CF520E030E040E251E4E7
S11310F069817A818B819C8156D5DC01CB01BC014D
S1131100CD01D4D4DC01CB019A8789870FC089E152
S113111090E09C878B878B859C850197F1F79C8752
S11311208B8789859A8501979A87898789859A8586
S1131130892B69F713C06D817E818F819885B6D420
S1131140DC01CB019A87898789859A859E878D875B
S11311508D859E850197F1F79E878D879E01235E7D
S11311603F4FCE01CF96FC018081918141E0B901CE
S113117097D09E01225D3F4FCE01CF96FC01808126
S1131180918140E0B9018CD080E090E0AAE7B3E41B
S11311908F87988BA98BBA8B20E030E04AE753E421
S11311A06F85788989899A89FED4DC01CB018B8B80
S11311B09C8BAD8BBE8B20E030E040E85FE36B8915
S11311C07C898D899E896ED488232CF481E090E0FB
S11311D0988F8F8B3BC020E03FEF4FE757E46B893C
S11311E07C898D899E89DBD418163CF520E030E09B
S11311F040E251E46F85788989899A89D4D4DC01E5
S1131200CB01BC01CD0152D4DC01CB01988F8F8B73
S11312100FC089E190E09A8F898F898D9A8D01970B
S1131220F1F79A8F898F8F89988D0197988F8F8B7B
S11312308F89988D892B69F713C06B897C898D8977
S11312409E8934D4DC01CB01988F8F8B8F89988D44
S11312509C8F8B8F8B8D9C8D0197F1F79C8F8B8F3F
S11312609E01235E3F4FCE01CF96FC018081918188
S113127040E0B90115D09E01225D3F4FCE01CF96CB
S1131280FC018081918141E0B9010AD0C05CDF4F4B
S11312900FB6F894DEBF0FBECDBFDF91CF91089596
S11312A0CF93DF93CDB7DEB7A1970FB6F894DEBF27
S11312B00FBECDBF9E8F8D8F78A36F8F49A389A159
S11312C0882309F076C08D8D9E8D6CDB80E090E0E4
S11312D0A0E2B1E489839A83AB83BC8320E030E04D
S11312E04AE753E469817A818B819C815CD4DC0177
S11312F0CB018D839E83AF83B88720E030E040E844
S11313005FE36D817E818F819885CCD388232CF413
S113131081E090E09A8789873BC020E03FEF4FE768
S113132057E46D817E818F81988539D418163CF5F8
S113133020E030E040E251E469817A818B819C8134
S113134032D4DC01CB01BC01CD01B0D3DC01CB0133
S11313509A8789870FC089E190E09C878B878B856A
S11313609C850197F1F79C878B8789859A850197DE
S11313709A87898789859A85892B69F713C06D8136
S11313807E818F81988592D3DC01CB019A878987EE
S113139089859A859E878D878D859E850197F1F72E
S11313A09E878D872F8D38A18D8D9E8DB901BCDAD6
S11313B079C089A1813009F075C08D8D9E8D13DBB4
S11313C080E090E0A0E2B1E48F87988BA98BBA8B80
S11313D020E030E04AE753E46F85788989899A8967
S11313E0E2D3DC01CB018B8B9C8BAD8BBE8B20E0DD
S11313F030E040E85FE36B897C898D899E8952D314
S113140088232CF481E090E0988F8F8B3BC020E000
S11314103FEF4FE757E46B897C898D899E89BFD361
S113142018163CF520E030E040E251E46F857889FD
S113143089899A89B8D3DC01CB01BC01CD0136D3AB
S1131440DC01CB01988F8F8B0FC089E190E09A8FDC
S1131450898F898D9A8D0197F1F79A8F898F8F895A
S1131460988D0197988F8F8B8F89988D892B69F729
S113147013C06B897C898D899E8918D3DC01CB01CB
S1131480988F8F8B8F89988D9C8F8B8F8B8D9C8D54
S11314900197F1F79C8F8B8F2F8D38A18D8D9E8DA9
S11314A0B90142DAA1960FB6F894DEBF0FBECDBFE4
S11314B0DF91CF910895CF93DF9300D000D0CDB7C3
S11314C0DEB79C838B8319828FEF8A838B819C8107
S11314D04CD08B819C8121E030E0AE014F5F5F4FA7
S11314E06FE0CDD0AE014E5F5F4F8B819C8121E0D8
S11314F030E062E8C4D00F900F900F900F90DF910E
S1131500CF910895CF93DF9300D0CDB7DEB79A8300
S113151089838CE490E02CE430E0F901208124609C
S1131520FC01208385E290E025E230E0F90120818E
S11315302061FC0120830F900F90DF91CF910895DB
S1131540CF93DF9300D0CDB7DEB79A83898385E24A
S113155090E025E230E0F90120812F7EFC01208318
S11315600F900F90DF91CF910895CF93DF9300D028
S11315701F92CDB7DEB79B838A8384E290E020EB91
S1131580FC0120838CE490E021E5FC0120838DE4C0
S113159090E0FC01808189838EE490E0FC018081ED
S11315A089838A819B81CCDF0F900F900F90DF910C
S11315B0CF910895CF93DF9300D01F92CDB7DEB7BC
S11315C09A8389836B838EE490E02B81FC012083D2
S11315D000008DE490E0FC0180818095881F8827BD
S11315E0881F8823B1F78EE490E0FC0180810F907E
S11315F00F900F90DF91CF9108950F931F93CF9386
S1131600DF93CDB7DEB727970FB6F894DEBF0FBED2
S1131610CDBF9A8389836B835D834C833F832E8301
S113162089819A816FDF89819A816B81C3DF0CC0C4
S11316300C811D81C80101969D838C8389819A81C7
S113164060E0B8DFF80180838E819F819C01215086
S113165031093F832E8321E0892B09F420E02223E2
S113166039F789819A816CDF27960FB6F894DEBF2B
S11316700FBECDBFDF91CF911F910F910895CF93EE
S1131680DF93CDB7DEB727970FB6F894DEBF0FBE52
S1131690CDBF9A8389836B835D834C833F832E8381
S11316A089819A812FDF8B8120E8280F89819A8193
S11316B0622F80DF0DC08C819D819C012F5F3F4F85
S11316C03D832C83FC01208189819A81622F72DF02
S11316D08E819F819C01215031093F832E8321E01B
S11316E0892B09F420E0222331F789819A8128DFAC
S11316F027960FB6F894DEBF0FBECDBFDF91CF9112
S113170008952F923F924F925F926F927F928F92A1
S11317109F92AF92BF92CF92DF92EF92FF920F937C
S11317201F93CF93DF93CDB7DEB760970FB6F894CE
S1131730DEBF0FBECDBF988B8F87AE01485F5F4F72
S11317408F85988927E030E060E057DF27E0FE01CD
S11317503896CE010196DC0101900D922A95E1F7AD
S113176060E0698150E05A8140E04B8130E03C8187
S113177020E02D8190E09E8180E08F81262E352E01
S1131780442E532E622E792E882EA22CB32CC42CD8
S1131790D52CE62CF72C082D192D2A2D3B2D4C2D5C
S11317A05D2D6E2D7F2D802F912F60960FB6F894AE
S11317B0DEBF0FBECDBFDF91CF911F910F91FF9080
S11317C0EF90DF90CF90BF90AF909F908F907F90DD
S11317D06F905F904F903F902F900895CF93DF9339
S11317E000D000D0CDB7DEB79A8389837C836B8326
S11317F04B815C8189819A8127E030E060E03FDFA2
S11318000F900F900F900F90DF91CF910895CF928A
S1131810DF92EF92FF920F931F93CF93DF93CDB795
S1131820DEB76C970FB6F894DEBF0FBECDBF998BB1
S1131830888B0A8B1B8B2C8B3D8B4E8B5F8B688F1D
S1131840FA8EE98EDC8ECB8E0DB71EB78DB79EB7A0
S11318507C018B8D9C8D01979C838B8301962DB786
S11318603EB7281B390B0FB6F8943EBF0FBE2DBFF1
S11318708DB79EB701969E838D8388E08F838F8179
S1131880882F90E02B8D3C8DA901481B590BCA0170
S1131890969587959987888780E290E29B878A87C7
S11318A080E290E09D878C8780E290E09F878E871E
S11318B01A8219820EC02D813E8189819A81820FFC
S11318C0931F20E2FC01208389819A8101969A83E7
S11318D0898329813A818B8D9C8D2817390758F388
S11318E01B861A868A89882F90E0807F99279D5FBE
S11318F082959295907F9827807F98279C018A856E
S11319009B85822B932B9B878A878A89882F90E0DB
S11319108F709927C0969C018A859B85822B932B77
S11319209B878A871D861C868B89882F90E0807F01
S113193099279D5F82959295907F9827807F98271D
S11319409C018C859D85822B932B9D878C878B890D
S1131950882F90E08F709927C0969C018C859D8577
S1131960822B932B9D878C871F861E868C89882FBC
S113197090E0807199279D5F82959295907F98273A
S1131980807F98279C018E859F85822B932B9F8730
S11319908E878C89882F90E08F709927C0969C0140
S11319A08E859F85822B932B9F878E878E859F851F
S11319B0892F9927482F2D813E8188859985820F0B
S11319C0931FFC0140838885998501964E852D815E
S11319D03E81820F931FFC0140838885998502967E
S11319E02D813E81820F931F2AE3FC012083888589
S11319F0998503962C853D85232F3327422F2D81EE
S1131A003E81820F931FFC0140838885998504964B
S1131A104C852D813E81820F931FFC014083888574
S1131A20998505962D813E81820F931F2AE3FC013F
S1131A3020838885998506962A853B85232F33271D
S1131A40422F2D813E81820F931FFC0140838885A4
S1131A50998507964A852D813E81820F931FFC014B
S1131A6040832D813E814B8D5C8D898D9A8DB9018A
S1131A7090D50FB6F894FEBE0FBEEDBE0FB6F89427
S1131A801EBF0FBE0DBF6C960FB6F894DEBF0FBE1F
S1131A90CDBFDF91CF911F910F91FF90EF90DF9019
S1131AA0CF9008952FD008F481E0089557D088F09E
S1131AB09F5790F0B92F9927B751A0F0D1F0660F36
S1131AC0771F881F991F1AF0BA95C9F712C0B13051
S1131AD081F05ED0B1E008955BC0672F782F88272E
S1131AE0B85F39F0B93FCCF3869577956795B39590
S1131AF0D9F73EF490958095709561957F4F8F4FFF
S1131B009F4F0895990F0008550FAA0BE0E8FEEFC8
S1131B1016161706E807F907C0F012161306E407AD
S1131B20F50798F0621B730B840B950B39F40A26A6
S1131B3061F0232B242B252B21F408950A2609F484
S1131B40A140A6958FEF811D811D089557FD9058E2
S1131B50440F551F59F05F3F71F04795880F97FB6D
S1131B60991F61F09F3F79F0879508951216130627
S1131B701406551FF2CF4695F1DF08C01616170656
S1131B801806991FF1CF869571056105089408958B
S1131B90E894BB2766277727CB0197F90895B2DF2E
S1131BA008F48FEF08950BD078C069D028F06ED078
S1131BB018F0952309F05AC05FC01124EACFC6DF9C
S1131BC0A0F3959FD1F3950F50E0551F629FF0014C
S1131BD0729FBB27F00DB11D639FAA27F00DB11DA5
S1131BE0AA1F649F6627B00DA11D661F829F22272E
S1131BF0B00DA11D621F739FB00DA11D621F839FB5
S1131C00A00D611D221F749F3327A00D611D231F8A
S1131C10849F600D211D822F762F6A2F11249F57D8
S1131C2050408AF0E1F088234AF0EE0FFF1FBB1FFB
S1131C30661F771F881F91505040A9F79E3F51059A
S1131C4070F014C0A6CF5F3FECF3983EDCF38695AA
S1131C5077956795B795F795E7959F5FC1F7FE2B45
S1131C60880F911D9695879597F9089597F99F6721
S1131C7080E870E060E008959FEF80EC0895002410
S1131C800A941616170618060906089500240A94DD
S1131C9012161306140605060895092E0394000C63
S1131CA011F4882352F0BB0F40F4BF2B11F460FFF2
S1131CB004C06F5F7F4F8F4F9F4F08952F923F92C5
S1131CC04F925F926F927F928F929F92AF92BF9248
S1131CD0CF92DF92EF92FF920F931F93CF93DF93F4
S1131CE0CDB7DEB763970FB6F894DEBF0FBECDBF96
S1131CF06C014B012A01FC0117821682838181FF4A
S1131D0029C3AE014F5F5F4F3A01F6019381F4019D
S1131D1093FD859193FF81914F01882309F416C3A4
S1131D20853239F493FD859193FF81914F0185327A
S1131D3031F4B60190E041D452012501E6CF10E020
S1131D40F12C20E02032A0F48B3269F030F48032A0
S1131D5059F0833269F420612CC08D3239F080331C
S1131D6039F4216026C02260246023C0286021C089
S1131D7027FD27C030ED380F3A3078F426FF06C02F
S1131D80FAE01F9F300D1124132F13C04AE0F49E74
S1131D90300D1124F32E20620CC08E3221F426FD66
S1131DA0D5C2206406C08C3611F4206802C088367F
S1131DB041F4F40193FD859193FF81914F018111C9
S1131DC0C1CF9BEB980F933018F42061805E06C05E
S1131DD09BE9980F933008F064C12F7E26FF16E02C
S1131DE02F73322E853619F42064322E08C08636BD
S1131DF021F4F22FF0683F2E02C01111115037FE6A
S1131E0007C01C3350F4EE24E394E10E27E00BC02A
S1131E10183038F027E017E005C027E04CE3E42E43
S1131E2002C0212FE12C520144E0A40EB11CF201A6
S1131E3060817181828193810E2DA301C7D22C010F
S1131E40098100FF02C003FF07C031FC08C032FE55
S1131E5009C030E2232E07C02DE2222E04C09BE2EB
S1131E60292E01C0212C802F8C7019F0211051C211
S1131E708DC237FE0FC0E40C04FF04C08A81813395
S1131E8009F4EA941E1474F5F8E0FE1578F588E078
S1131E90E82E2CC036FC2AC0812F90E084159505CD
S1131EA09CF02CEF42162FEF520674F0432D40683D
S1131EB0342E0AC0E2E0F0E0EC0FFD1FE10FF11D4B
S1131EC08081803319F411501111F4CF37FE0EC004
S1131ED0EE24E394E10E812F90E0481659062CF489
S1131EE0141904C0EE24E39401C010E037FE06C0C8
S1131EF01414150434F4C201019605C085E090E081
S1131F0002C081E090E021100196112331F0212FCD
S1131F1030E02F5F3F4F820F931F2F2D30E0821749
S1131F20930714F4F81A01C0F12C832D897041F43D
S1131F30FF2031F0B60180E290E03FD3FA94F8CF6D
S1131F40222021F0B601822D90E037D333FC08C063
S1131F50FF2031F0B60180E390E02FD3FA94F8CF5C
S1131F6037FE58C0942D852D57FE02C090E080E0C6
S1131F70292E382E20E030E0A2014E1951095D8748
S1131F804C87A201421953095F874E87612F70E085
S1131F9044275527461B570B598B488B5FEF251653
S1131FA0350641F4B6018EE290E02A8B3B8B05D3D3
S1131FB03B892A89421453046CF04C855D85421593
S1131FC0530544F4EE85FF85E20FF31FE60DF71D7C
S1131FD0818101C080E351E0251A31082F5F3F4F12
S1131FE0488959892416350644F0B60190E02A8BB5
S1131FF03B8BE3D22A893B89D1CF2414350439F4AD
S11320009A81963318F4953311F404FF81E3B601F1
S113201090E045C08A81813309F00F7EB60190E0DB
S1132020CCD2111105C034FC16C085E690E015C071
S1132030B6018EE290E0C1D282E0EE24E394E80E91
S1132040F301E80FF11D8081B60190E0B6D2115082
S11320508E2D99F7E8CF85E490E0B601AED257FC17
S113206005C04114510439F404FF05C0519441944E
S113207051088DE201C08BE2B60190E09ED280E36C
S11320809AE0491651042CF08F5F5AE0451A510822
S1132090F7CFB60190E091D2B601C201C0968DD2BD
S11320A04CC1833631F0833779F0833509F054C05D
S11320B020C05201E2E0AE0EB11CF201808189839E
S11320C001E010E0230113C05201F2E0AF0EB11C95
S11320D0F2014080518026FF03C0612F70E002C0EE
S11320E06FEF7FEFC2012A8B5DD28C012A892F7793
S11320F014C05201F2E0AF0EB11CF20140805180D5
S113210026FF03C0612F70E002C06FEF7FEFC201B2
S11321102A8B34D28C012A892068322E23FD18C0E0
S11321208F2D90E00817190798F4B60180E290E02B
S113213044D2FA94F5CFF20137FC859137FE8191B0
S11321402F01B60190E039D2F110FA94015011092F
S11321500115110581F7F1C0843611F0893651F566
S1132160520127FF09C0F4E0AF0EB11CF2016081F7
S11321707181828193810AC0F2E0AF0EB11CF20139
S113218060817181072E000C880B990B2F76322EFB
S113219097FF09C090958095709561957F4F8F4FFB
S11321A09F4F2068322E2AE030E0A3013ED2E82E71
S11321B0E6183EC0022F853721F40F7E2AE030E076
S11321C01DC0097F8F3691F018F4883559F0BEC0D0
S11321D0803719F0883711F0B9C0006104FF09C0D5
S11321E0046007C024FF08C0066006C028E030E091
S11321F005C020E130E002C020E132E0520107FFD7
S113220009C0F4E0AF0EB11CF201608171818281DA
S1132210938108C0F2E0AF0EB11CF20160817181BC
S113222080E090E0A30101D2E82EE6180F77302E6B
S113223036FE0BC0332D3E7FE11650F434FE0AC047
S113224032FC08C0332D3E7E05C00E2D332D03C055
S11322500E2D01C0012F34FF0CC0FE01EE0DF11D47
S11322608081803311F4397E08C032FF05C00E5FCF
S113227004C0832F867809F00F5F33FD12C030FF4E
S113228006C01E2D0F1518F41F0D101B0F2D0F1552
S113229060F4B60180E290E03B8B8FD10F5F3B8905
S11322A0F6CF0F1510F4F01A01C0F12C34FF11C051
S11322B0B60180E390E03B8B80D13B8932FF16C0AE
S11322C031FD03C088E790E002C088E590E0B601E4
S11322D00CC0832F867851F031FF02C08BE201C01D
S11322E080E237FD8DE2B60190E067D1E11630F46B
S11322F0B60180E390E061D11150F8CFEA94F30184
S1132300EE0DF11D8081B60190E057D1E110F6CFBA
S113231014C0F4E0FF1548F584E0F81A33FE1DC03C
S1132320211024C003FF27C00CE810E0F32DF07146
S11323303F2EF8018491811121C0FF2009F4FDCCC6
S1132340B60180E290E039D1FA94F7CFF6018681A4
S1132350978123C08FEF9FEF20C0B60180E290E009
S11323602CD1FA94F110F9CFDBCFF12CB601822DE8
S113237090E023D1D7CF00E910E0D8CF31108052BC
S1132380B60190E01AD10F5F1F4FD3CF23E02F1572
S113239010F483E0C2CFF12CC5CF63960FB6F89446
S11323A0DEBF0FBECDBFDF91CF911F910F91FF9084
S11323B0EF90DF90CF90BF90AF909F908F907F90E1
S11323C06F905F904F903F902F900895283008F0C1
S11323D027E03327DA01990F311D87FD91600096BC
S11323E06105710539F432602E5F3D9330E32A951F
S11323F0E1F708959F3F30F080387105610509F0D9
S11324003C5F3C5F3D93913008F08068911DDF9301
S1132410CF931F930F93FF92EF92192F987F969566
S1132420E92F96959695E90FFF27E251FF4F9927DB
S11324303327EE24FF24A701E701059008940794AD
S113244028F4360FE71EF81E491F511D660F771F2B
S1132450881F991F0694A1F70590079428F4E70EA6
S1132460F81E491F561FC11D770F881F991F661F2D
S11324700694A1F70590079428F4F80E491F561FF7
S1132480C71FD11D880F991F661F771F0694A1F7D8
S11324900590079420F4490F561FC71FD81F990FA2
S11324A0661F771F881F0694A9F7849110951770EB
S11324B041F0D695C79557954795F794E7941A95A3
S11324C0C1F7E4E9F0E068941590159135916591B0
S11324D0959105907FE27395E118F10A430B560B31
S11324E0C90BD009C0F7E10CF11E431F561FC91FC9
S11324F0D01D7EF4703311F48A95E6CFE894015030
S113250030F0080F0AF40027021708F4202F23954F
S1132510022F7A3328F079E37D932A95E9F710C0E6
S11325207D932A9589F6069497956795379517951F
S11325301794E118F10A430B560BC90BD00998F014
S113254023957E9173957A3308F070E37C9320137E
S1132550B8F77E9170617D9330F0839571E37D933C
S113256070E32A95E1F71124EF90FF900F911F91EA
S1132570CF91DF91992787FD90950895FC010590EF
S1132580615070400110D8F7809590958E0F9F1F71
S11325900895FB01DC0102C001900D9241505040AE
S11325A0D8F70895FC016150704001900110D8F7EC
S11325B0809590958E0F9F1F08950F931F93CF932F
S11325C0DF93FB01238121FD03C08FEF9FEF28C020
S11325D022FF16C046815781248135814217530753
S11325E044F4A081B1819D012F5F3F4F318320834B
S11325F08C93268137812F5F3F4F3783268310C00A
S1132600EB01092F182F0084F185E02D0995892B02
S1132610E1F68E819F8101969F838E83812F902F77
S1132620DF91CF911F910F910895FA01AA272830C5
S113263051F1203181F1E8946F936E7F6E5F7F4F8B
S11326408F4F9F4FAF4FB1E03ED0B4E03CD0670F07
S1132650781F891F9A1FA11D680F791F8A1F911D5A
S1132660A11D6A0F711D811D911DA11D20D009F4AA
S113267068943F912AE0269F11243019305D3193EC
S1132680DEF6CF010895462F4770405D4193B3E0D5
S11326900FD0C9F7F6CF462F4F70405D4A3318F07C
S11326A0495D31FD4052419302D0A9F7EACFB4E02D
S11326B0A6959795879577956795BA95C9F70097E5
S11326C06105710508959B01AC010A2E0694579586
S11326D0479537952795BA95C9F7620F731F841FDD
S10D26E0951FA01D0895F894FFCF84
S11326EA2D212054455354204C494E452031202154
S11326FA00212054455354204C494E452032202170
S105270A2D009C
S9030000FC
