S010000048656164735570212E7372656349
S113000046C000006DC000006BC0000069C0000065
S113001075C6000040C1000063C0000061C000005C
S11300205FC000005DC000005BC0000059C000005C
S113003057C0000055C0000053C0000051C000006C
S11300404FC000004DC000004BC0000049C000007C
S113005047C0000045C0000043C0000041C000008C
S11300603FC000003DC000003BC0000039C000009C
S113007037C0000035C0000033C0000031C00000AC
S11300802FC000002DC000002BC00000770B1124EE
S11300901FBECFEFD0E4DEBFCDBF11E0A0E0B1E0E2
S11300A0ECE1F6E300E00BBF02C007900D92A0392B
S11300B0B107D9F721E0A0E9B1E001C01D92A6394A
S11300C0B207E1F710E0C7E4D0E004C02197FE01D5
S11300D00E94F11AC634D107C9F7EBD20C940C1B59
S11300E08FCFCF93DF9300D0CDB7DEB79A838983C8
S11300F08CE790E02CE730E0F90120812168FC01D5
S113010020838AE790E02AE730E0F9012081266025
S1130110FC0120838EE790E02EE730E0F901208196
S11301202260FC0120830F900F90DF91CF910895FE
S1130130CF93DF9300D0CDB7DEB79A8389838AE764
S113014090E02AE730E0F90120812068FC01208357
S11301508AE790E02AE730E0F90120812064FC017D
S113016020830F900F90DF91CF910895CF93DF9369
S113017000D0CDB7DEB79A8389838AE790E02AE777
S113018030E0F90120812F77FC0120830F900F903C
S1130190DF91CF910895EF92FF920F931F93CF9326
S11301A0DF93CDB7DEB72D970FB6F894DEBF0FBE41
S11301B0CDBF998788878AED92E09A83898385E207
S11301C091E09C838B8388859985B2DF8AE790E0F0
S11301D0FC018081882F90E08074992721E0892B8D
S11301E009F420E0222391F788E790E0FC012081C4
S11301F0318189819A81A901481B590BCA019E83C7
S11302008D8388859985B2DF8D819E819C0140E034
S113021050E084E690E0DC010E94D31A7B018C015B
S11302208B819C819C0140E050E0C801B7010E9491
S1130230A21ADA01C9018F839F818DEC989F812DC9
S11302401124869586958695882F90E082959295BF
S1130250907F9827807F9827382F9F818DEC989FD7
S1130260812D1124869586958695880F282F220F37
S1130270220F820F592F581B852F832B2D960FB6D3
S1130280F894DEBF0FBECDBFDF91CF911F910F91C8
S1130290FF90EF9008951F920F9200905F000F92CD
S11302A0112400905B000F922F933F934F935F9321
S11302B06F937F938F939F93AF93BF93EF93FF932A
S11302C0CF93DF93CDB7DEB76D97DEBFCDBF80E0B0
S11302D090E0A0EFB1E489839A83AB83BC8320E0F0
S11302E030E04AE753E469817A818B819C810E94E2
S11302F02C1ADC01CB018D839E83AF83B88720E069
S113030030E040E85FE36D817E818F8198850E94B3
S1130310DE1888232CF481E090E09A8789873FC017
S113032020E03FEF4FE757E46D817E818F81988510
S11303300E94281A18164CF520E030E040E251E4FF
S113034069817A818B819C810E942C1ADC01CB010A
S1130350BC01CD010E944A19DC01CB019A8789872F
S11303600FC089E190E09C878B878B859C850197E2
S1130370F1F79C878B8789859A8501979A87898766
S113038089859A85892B69F714C06D817E818F8157
S113039098850E944A19DC01CB019A87898789854F
S11303A09A859E878D878D859E850197F1F79E8717
S11303B08D8780919001882309F0CFC0809123001C
S11303C08D8F8D8D882F90E0817099279C01220F4D
S11303D0331F220F331F8D8D882F90E08270992751
S11303E0282B392B8D8D882F90E0959587959595A1
S11303F0879581709927822B932B0196877090782B
S1130400992324F40197886F9F6F01968D8F9091A3
S1130410950181E0992309F080E0882319F08D8DFE
S1130420809395018D8D8093950191E0882309F443
S113043090E0992309F493C08FEF8093900181E2B7
S113044090E021E230E0F90120812061FC01208369
S113045082E290E022E230E0F90120812061FC0197
S1130460208380E090E0A0EFB1E48F87988BA98B84
S1130470BA8B20E030E04AE753E46F8578898989B4
S11304809A890E942C1ADC01CB018B8B9C8BAD8B3F
S1130490BE8B20E030E040E85FE36B897C898D8986
S11304A09E890E94DE1888232CF481E090E0988FC6
S11304B08F8B3FC020E03FEF4FE757E46B897C8987
S11304C08D899E890E94281A18164CF520E030E088
S11304D040E251E46F85788989899A890E942C1AAF
S11304E0DC01CB01BC01CD010E944A19DC01CB0126
S11304F0988F8F8B0FC089E190E09A8F898F898DB7
S11305009A8D0197F1F79A8F898F8F89988D01972A
S1130510988F8F8B8F89988D892B69F714C06B897D
S11305207C898D899E890E944A19DC01CB01988FB0
S11305308F8B8F89988D9C8F8B8F8B8D9C8D019742
S1130540F1F79C8F8B8F82E290E022E230E0F90198
S113055020812F7EFC01208302C0109290016D96B1
S11305600FB6F894DEBF0FBECDBFDF91CF91FF91E0
S1130570EF91BF91AF919F918F917F916F915F9117
S11305804F913F912F910F9000925B000F9000923A
S11305905F000F901F9018952F923F924F925F9299
S11305A06F927F928F929F92AF92BF92CF92DF927F
S11305B0EF92FF920F931F93CF93DF93CDB7DEB7E4
S11305C029970FB6F894DEBF0FBECDBF99878887F1
S11305D0888599850E948614A22EB32EC42ED52E0A
S11305E0E62EF72E082F192F2A2D3B2D4C2D5D2D8D
S11305F06E2D7F2D802F912F29833A834B835C832B
S11306006D837E838F8360E0698150E05A8140E08E
S11306104B8130E03C8120E02D8190E09E8180E0A0
S11306208F81262E352E442E532E622E792E882E1F
S1130630A22CB32CC42CD52CE62CF72C082D192D68
S11306402A2D3B2D4C2D5D2D6E2D7F2D802F912F2E
S113065029960FB6F894DEBF0FBECDBFDF91CF91C0
S11306601F910F91FF90EF90DF90CF90BF90AF90CC
S11306709F908F907F906F905F904F903F902F90BE
S11306800895CF93DF9300D000D0CDB7DEB79A831F
S113069089837C836B832B813C8189819A81B90115
S11306A00E94F3140F900F900F900F90DF91CF9151
S11306B008950F931F93CF93DF93CDB7DEB7289799
S11306C00FB6F894DEBF0FBECDBF19821A8280E840
S11306D08B8380E88C831D8280E88E8380E88F83FF
S11306E080E8888726D089819A81AB81BC818C017E
S11306F09D0140E061E081E991E00E9492188D81C2
S11307009E81AF81B8858C019D0141E061E081E962
S113071091E00E9492189CD480E090E028960FB655
S1130720F894DEBF0FBECDBFDF91CF911F910F9123
S11307300895CF92DF92EF92FF920F931F93CF937E
S1130740DF93CDB7DEB760970FB6F894DEBF0FBE68
S1130750CDBFB9D160E071E081E991E092DF82E040
S113076039D083E037D088E035D089E033D08AE0CF
S113077031D078946894CC24C4F8D12CCE0101965D
S11307807C0100910001109101012091020130913E
S1130790030140910401509105016091060181E932
S11307A091E00E940C1540E0CE010196BC0182E963
S11307B091E00E94FC1060960FB6F894DEBF0FBE65
S11307C0CDBFDF91CF911F910F91FF90EF90DF90FC
S11307D0CF900895CF93DF931F92CDB7DEB789836F
S11307E08981883008F059C081E290E021E230E04C
S11307F0F9012081622F2981222F30E0A90147705D
S1130800552721E030E002C0220F331F4A95E2F75A
S113081020952623FC01208382E290E022E230E04E
S1130820F9012081622F2981222F30E0A90147702C
S1130830552721E030E002C0220F331F4A95E2F72A
S1130840262BFC01208388E690E028E630E0F901BD
S113085020812160FC0120838BE690E02BE630E0D0
S1130860F9012081622F2981222F30E0A9014770EC
S1130870552721E030E002C0220F331F4A95E2F7EA
S1130880262BFC0120838BE390E02BE330E0F9017D
S113089020812160FC01208312C18981803108F00C
S11308A059C084E290E024E230E0F9012081622F13
S11308B02981222F30E0A9014770552721E030E03B
S11308C002C0220F331F4A95E2F720952623FC012C
S11308D0208385E290E025E230E0F9012081622F57
S11308E02981222F30E0A9014770552721E030E00B
S11308F002C0220F331F4A95E2F7262BFC01208306
S113090088E690E028E630E0F90120812260FC01CD
S113091020838CE690E02CE630E0F9012081622F00
S11309202981222F30E0A9014770552721E030E0CA
S113093002C0220F331F4A95E2F7262BFC012083C5
S11309408BE390E02BE330E0F90120812260FC018D
S11309502083B5C08981883108F059C087E290E0CE
S113096027E230E0F9012081622F2981222F30E033
S1130970A9014770552721E030E002C0220F331F40
S11309804A95E2F720952623FC01208388E290E033
S113099028E230E0F9012081622F2981222F30E002
S11309A0A9014770552721E030E002C0220F331F10
S11309B04A95E2F7262BFC01208388E690E028E69E
S11309C030E0F90120812460FC0120838DE690E071
S11309D02DE630E0F9012081622F2981222F30E0B9
S11309E0A9014770552721E030E002C0220F331FD0
S11309F04A95E2F7262BFC0120838BE390E02BE35E
S1130A0030E0F90120812460FC01208358C08AE28F
S1130A1090E02AE230E0F9012081622F2981222F1F
S1130A2030E0A9014770552721E030E002C0220FD1
S1130A30331F4A95E2F720952623FC0120838BE29D
S1130A4090E02BE230E0F9012081622F2981222FEE
S1130A5030E0A9014770552721E030E002C0220FA1
S1130A60331F4A95E2F7262BFC01208388E690E0A9
S1130A7028E630E0F90120812860FC01208383E727
S1130A8090E023E730E0F9012081622F2981222FB1
S1130A9030E0A9014770552721E030E002C0220F61
S1130AA0331F4A95E2F7262BFC0120838BE390E069
S1130AB02BE330E0F90120812860FC0120830F90B2
S1130AC0DF91CF910895CF93DF93CDB7DEB76C97C5
S1130AD00FB6F894DEBF0FBECDBF81E290E021E2F5
S1130AE030E0F90120812160FC01208382E290E062
S1130AF022E230E0F90120812160FC01208380E0C2
S1130B0090E0AAE7B3E489839A83AB83BC8320E0B3
S1130B1030E04AE753E469817A818B819C810E94A9
S1130B202C1ADC01CB018D839E83AF83B88720E030
S1130B3030E040E85FE36D817E818F8198850E947B
S1130B40DE1888232CF481E090E09A8789873FC0DF
S1130B5020E03FEF4FE757E46D817E818F819885D8
S1130B600E94281A18164CF520E030E040E251E4C7
S1130B7069817A818B819C810E942C1ADC01CB01D2
S1130B80BC01CD010E944A19DC01CB019A878987F7
S1130B900FC089E190E09C878B878B859C850197AA
S1130BA0F1F79C878B8789859A8501979A8789872E
S1130BB089859A85892B69F714C06D817E818F811F
S1130BC098850E944A19DC01CB019A878987898517
S1130BD09A859E878D878D859E850197F1F79E87DF
S1130BE08D8782E290E022E230E0F90120812E7FBD
S1130BF0FC01208380E090E0AAE7B3E48F87988B20
S1130C00A98BBA8B20E030E04AE753E46F857889FA
S1130C1089899A890E942C1ADC01CB018B8B9C8BCD
S1130C20AD8BBE8B20E030E040E85FE36B897C89CC
S1130C308D899E890E94DE1888232CF481E090E03F
S1130C40988F8F8B3FC020E03FEF4FE757E46B89CD
S1130C507C898D899E890E94281A18164CF520E0FB
S1130C6030E040E251E46F85788989899A890E944D
S1130C702C1ADC01CB01BC01CD010E944A19DC0114
S1130C80CB01988F8F8B0FC089E190E09A8F898F69
S1130C90898D9A8D0197F1F79A8F898F8F89988D15
S1130CA00197988F8F8B8F89988D892B69F714C042
S1130CB06B897C898D899E890E944A19DC01CB014C
S1130CC0988F8F8B8F89988D9C8F8B8F8B8D9C8D1C
S1130CD00197F1F79C8F8B8F82E290E022E230E063
S1130CE0F90120812160FC0120836C960FB6F894F1
S1130CF0DEBF0FBECDBFDF91CF9108951F920F923B
S1130D0000905F000F92112400905B000F92AF924D
S1130D10BF92CF92DF92EF92FF920F931F932F9384
S1130D203F934F935F936F937F938F939F93AF936F
S1130D30BF93EF93FF93CF93DF93CDB7DEB7A09725
S1130D40DEBFCDBF84E68983998189E2989F812D96
S1130D50112482958F708B831A828091200088A33E
S1130D6088A1882F90E088709927892B09F01EC1EB
S1130D7081E290E021E230E0F90120812061FC0170
S1130D80208382E290E022E230E0F90120812061B8
S1130D90FC01208380E090E0AAE7B3E48C839D8388
S1130DA0AE83BF8320E030E04AE753E46C817D8169
S1130DB08E819F810E942C1ADC01CB018887998740
S1130DC0AA87BB8720E030E040E85FE36885798547
S1130DD08A859B850E94DE1888232CF481E090E0AC
S1130DE09D878C873FC020E03FEF4FE757E468853D
S1130DF079858A859B850E94281A18164CF520E06F
S1130E0030E040E251E46C817D818E819F810E94BB
S1130E102C1ADC01CB01BC01CD010E944A19DC0172
S1130E20CB019D878C870FC089E190E09F878E87D7
S1130E308E859F850197F1F79F878E878C859D8589
S1130E4001979D878C878C859D85892B69F714C0B4
S1130E50688579858A859B850E944A19DC01CB01C6
S1130E609D878C878C859D85998B888B88899989AA
S1130E700197F1F7998B888B82E290E022E230E0CF
S1130E80F90120812F7EFC0120836A8184E991E0AD
S1130E900E9451129A818B81890F8A8380E090E0AD
S1130EA0A8ECB2E48A8B9B8BAC8BBD8B20E030E04A
S1130EB04AE753E46A897B898C899D890E942C1AAC
S1130EC0DC01CB018E8B9F8BA88FB98F20E030E0A3
S1130ED040E85FE36E897F89888D998D0E94DE18D2
S1130EE088232CF481E090E09B8F8A8F3FC020E020
S1130EF03FEF4FE757E46E897F89888D998D0E9473
S1130F00281A18164CF520E030E040E251E46A89D2
S1130F107B898C899D890E942C1ADC01CB01BC0140
S1130F20CD010E944A19DC01CB019B8F8A8F0FC02F
S1130F3089E190E09D8F8C8F8C8D9D8D0197F1F7C9
S1130F409D8F8C8F8A8D9B8D01979B8F8A8F8A8D25
S1130F509B8D892B69F714C06E897F89888D998D43
S1130F600E944A19DC01CB019B8F8A8F8A8D9B8D4D
S1130F709F8F8E8F8E8D9F8D0197F1F79F8F8E8F10
S1130F8089818150898381E09981992309F480E0E2
S1130F90882309F07ACF60E084E991E00E9451123D
S1130FA060E081E991E00E9453182DC088A1882F48
S1130FB090E084709927892B31F581E991E0ECDA8E
S1130FC0A22EB32EC42ED52EE62EF72E082F192FBF
S1130FD02A2D3B2D4C2D5D2D6E2D7F2D802F912F95
S1130FE020930001309301014093020150930301C7
S1130FF060930401709305018093060161E081E927
S113100091E00E945318A0960FB6F894DEBF0FBE6D
S1131010CDBFDF91CF91FF91EF91BF91AF919F91A0
S11310208F917F916F915F914F913F912F911F917C
S11310300F91FF90EF90DF90CF90BF90AF900F9003
S113104000925B000F9000925F000F901F90189524
S1131050EF920F93CF93DF93CDB7DEB7C752D14052
S11310600FB6F894DEBF0FBECDBF20E031E0CE0155
S11310708696FC01A901119241505040E1F785E0A8
S1131080E7E0F1E0DE01969601900D928A95E1F792
S11310902BE0CE018B96FC01322F11923A95E9F7A1
S11310A087E0E7E1F1E0DE01D69601900D928A95A2
S11310B0E1F729E0CE01CD96FC01322F11923A9549
S11310C0E9F7CE018A5B9F4F25E0E7E2F1E0DC011E
S11310D001900D922A95E1F72BE00596FC01322F41
S11310E011923A95E9F780E38C8B80E38D8B81E054
S11310F089831A821B821D821C82BE016A5E7F4F15
S1131100CE0186960F2EF7E0EF2EF02D03E020E0BF
S11311104A81F0D08C819D81892BA9F483E991E0E7
S11311203AD8882F90E095958795959587959595CC
S1131130879595958795805D8C8B83E991E02BD875
S11311408F70805D8D8BCE01469680589F4F2C8981
S11311503D89FC01318320838C819D81AC014F5FEB
S11311605F4FCA0196958795969587959C01ABE745
S1131170B4E10E94C41A9C013695279564E6629FE7
S1131180C001639F900D11249A01281B390BC901DA
S11311909D838C83CE01469641E0BC0182E991E0B7
S11311A00E94FC1080919501833071F48981882F0D
S11311B090E0039681709078992324F401978E6FC0
S11311C09F6F0196898311C080919501823069F4E3
S11311D08981882F90E0019681709078992324F476
S11311E001978E6F9F6F01968983109295018B8171
S11311F0882F90E0019621E130E0B9010E948F1A16
S11312008B838B81882319F48A8180958A8380E07B
S113121090E0A0EFB1E48E839F83A887B98720E094
S113122030E04AE753E46E817F81888599850E9486
S11312302C1ADC01CB018A879B87AC87BD8720E011
S113124030E040E85FE36A857B858C859D850E945C
S1131250DE1888232CF481E090E09F878E873FC0BE
S113126020E03FEF4FE757E46A857B858C859D85B9
S11312700E94281A18164CF520E030E040E251E4B0
S11312806E817F81888599850E942C1ADC01CB01AF
S1131290BC01CD010E944A19DC01CB019F878E87D6
S11312A00FC089E190E0998B888B8889998901978F
S11312B0F1F7998B888B8E859F8501979F878E8701
S11312C08E859F85892B69F714C06A857B858C85FB
S11312D09D850E944A19DC01CB019F878E878E85EC
S11312E09F859B8B8A8B8A899B890197F1F79B8BBE
S11312F08A8B03CFEF920F931F93CF93DF93CDB7D6
S1131300DEB76F970FB6F894DEBF0FBECDBF998FCF
S1131310888F7B8F6A8F4C8F2D8F0E8FEF8E198263
S11313201A821B8281E08C83888D998D0E94031B15
S113133011E0029708F410E0888D998D0E94031B38
S113134021E0409708F020E0812F8223882331F0A8
S1131350888D998D0E94031B8F5F01C080E0898373
S11313601D8234C08D81882311F481E08A838D81AC
S1131370882F90E082959295907F9827807F982778
S1131380288D398D820F931F0E94031B982F8A8109
S1131390890F8A838D81882F90E082959295907F22
S11313A09827807F9827288D398D820F931F0E945C
S11313B0031B982F8B81890F8B838A818F5F8A838C
S11313C08B818F5F8B838D818F5F8D839D818C8DCE
S11313D0981740F28C8D882F90E082959295907F9B
S11313E09827807F9827288D398D820F931F0E941C
S11313F0031B982F8B81890F8B838B818F5F8B834A
S11314008A81882F90E0419710F48A8101C080E09E
S11314108A838A81882349F08B81882F90E04097C2
S113142010F080E103C08B8101C080E08B838D8D3F
S11314308F3F69F48981282F30E08FE090E02817EE
S1131440390718F489818F5F03C080E001C0898166
S113145089838D8D8F3F19F48A818F5F01C08A81C2
S11314608A838D8D8F3F19F48B81815001C08B81CC
S11314708B838D8D8F3F71F48C81882F90E09E013A
S1131480285F3F4F820F931F20E2FC0120838C8151
S11314908F5F8C8381E08E83F3C081E08F83E8C00B
S11314A09C818981981709F053C08C81882F90E022
S11314B001979E01285F3F4F820F931F2CE7FC0189
S11314C020838981882F90E020E130E0A901481B26
S11314D0590BCA018C01015011098E81882F90E0AB
S11314E082959295907F9827807F9827288D398DB3
S11314F0820F931F0E94031B08171907A0F08E8107
S1131500882F90E082959295907F9827807F9827E6
S1131510288D398D820F931F0E94031B982F898178
S1131520890F8F5F01C080E089838D8D8F3F69F4BF
S11315308981282F30E08FE090E02817390718F4CC
S113154089818F5F03C080E001C08981898379C06C
S113155091E02C818A81281708F490E081E03C8195
S11315602B81231708F480E08923882369F08C8178
S1131570882F90E001979E01285F3F4F820F931FB1
S11315802FE5FC0120835DC031E08D8D8F3F09F094
S113159030E08C81882F90E021E0409709F020E032
S11315A0832F8223882369F08C81882F90E0019710
S11315B09E01285F3F4F820F931F20E2FC0120838E
S11315C040C08E81882F90E08150904F82959295F3
S11315D0907F9827807F9827288D398D280F391F71
S11315E08F81882F90E00197820F931FFC018081E7
S11315F0882321F18C81882F90E001979E01285F38
S11316003F4F820F931F2E81222F30E02150304F05
S113161022953295307F3227207F3227488D598D8D
S1131620420F531F2F81222F30E021503109240F04
S1131630351FF9012081FC01208303C08C81815076
S11316408C838C81882F90E0409720F48C818F5F6D
S11316508C830BC08A8D9B8D20E1FE013896DC01C2
S113166001900D922A95E1F710C08F818F5F8F83CF
S11316709F818F8D891708F013CF8E818F5F8E83A2
S11316809E818E8D891708F008CF6F960FB6F89457
S1131690DEBF0FBECDBFDF91CF911F910F91EF90B1
S11316A00895CF93DF9300D000D0CDB7DEB79A83EF
S11316B089837C836B8389819A81019789F48B81E7
S11316C09C81019669F481E991E099D782E991E0DE
S11316D01AD083E991E00E94710084E991E09DD6DB
S11316E00F900F900F900F90DF91CF910895CF93AB
S11316F0DF93CDB7DEB76FEF7FEF81E090E0D1DF0E
S1131700DF91CF910895CF93DF93CDB7DEB7609784
S11317100FB6F894DEBF0FBECDBF988B8F878F8531
S1131720988981D08F85988987D280E090E0A0EA5B
S1131730B1E489839A83AB83BC8320E030E04AE739
S113174053E469817A818B819C810E942C1ADC018B
S1131750CB018D839E83AF83B88720E030E040E8DF
S11317605FE36D817E818F8198850E94DE188823D6
S11317702CF481E090E09A8789873FC020E03FEF16
S11317804FE757E46D817E818F8198850E94281AE6
S113179018164CF520E030E040E251E469817A818A
S11317A08B819C810E942C1ADC01CB01BC01CD01F0
S11317B00E944A19DC01CB019A8789870FC089E10D
S11317C090E09C878B878B859C850197F1F79C879C
S11317D08B8789859A8501979A87898789859A85D0
S11317E0892B69F714C06D817E818F8198850E9451
S11317F04A19DC01CB019A87898789859A859E8756
S11318008D878D859E850197F1F79E878D878F85BE
S1131810988949D460960FB6F894DEBF0FBECDBF49
S1131820DF91CF910895CF93DF9300D0CDB7DEB78A
S11318309A83898384E690E024E630E0F9012081EC
S11318402F77FC0120838CEB90E02CEB30E0F90146
S113185020812E7FFC01208388EB90E022E0FC01B4
S1131860208389EB90E029EB30E0F90120812D7F82
S1131870FC0120830F900F90DF91CF910895CF93B7
S1131880DF93CDB7DEB72A970FB6F894DEBF0FBE4D
S1131890CDBF9A8389836B8389EB90E0FC018081BF
S11318A02A960FB6F894DEBF0FBECDBFDF91CF915D
S11318B00895CF93DF9300D0CDB7DEB79A838983A1
S11318C08CEB90E024E8FC0120830F900F90DF91D3
S11318D0CF910895CF93DF9300D0CDB7DEB79A832D
S11318E089838CEB90E024E9FC0120830F900F9016
S11318F0DF91CF910895CF93DF9300D0CDB7DEB7BA
S11319009A8389838CEB90E024EAFC012083000015
S11319108CEB90E0FC0180818095881F8827881FCC
S11319208823B1F789819A8168E0A9DF0F900F902D
S1131930DF91CF910895CF93DF9300D000D0CDB73E
S1131940DEB79A8389836B834C838BEB90E02B8186
S1131950FC01208389819A81ACDF00008CEB90E04C
S1131960FC0180818095881F8827881F8823B1F710
S113197089819A816C8183DF0F900F900F900F9073
S1131980DF91CF910895CF93DF9300D000D000D0A2
S1131990CDB7DEB79C838B837E836D838B819C81E3
S11319A0AADF8B819C8148E16CE7C5DF8B819C8138
S11319B048E260E4C0DF1A82198213C08D819E81DF
S11319C0FC0120818B819C8148E2622FB4DF8D81F0
S11319D09E8101969E838D8389819A8101969A8343
S11319E0898389819A8140974CF38B819C8172DF32
S11319F026960FB6F894DEBF0FBECDBFDF91CF9110
S1131A000895CF93DF9300D0CDB7DEB79A8389834F
S1131A1089819A8170DF89819A8148E16CE78BDF43
S1131A2089819A8148E260E086DF89819A8148E26F
S1131A3060E881DF89819A814DDF0F900F90DF91FB
S1131A40CF910895CF93DF9300D0CDB7DEB79A83BB
S1131A50898389819A814FDF89819A8148E16CE782
S1131A606ADF89819A8148E260E065DF89819A8131
S1131A7048E260EC60DF89819A812CDF0F900F903F
S1131A80DF91CF910895CF93DF93CDB7DEB7609701
S1131A900FB6F894DEBF0FBECDBF988B8F878F85AE
S1131AA0988929DF8F85988948E16CE744DF8F8521
S1131AB0988948E260E03FDF8F85988948E268E3CF
S1131AC03ADF8F85988948E260E435DF8F8598890D
S1131AD001DF80E090E0A0E2B1E489839A83AB83E4
S1131AE0BC8320E030E04AE753E469817A818B814A
S1131AF09C810E942C1ADC01CB018D839E83AF83D1
S1131B00B88720E030E040E85FE36D817E818F811B
S1131B1098850E94DE1888232CF481E090E09A874F
S1131B2089873FC020E03FEF4FE757E46D817E8116
S1131B308F8198850E94281A18164CF520E030E011
S1131B4040E251E469817A818B819C810E942C1A44
S1131B50DC01CB01BC01CD010E944A19DC01CB019F
S1131B609A8789870FC089E190E09C878B878B8552
S1131B709C850197F1F79C878B8789859A850197C6
S1131B809A87898789859A85892B69F714C06D811D
S1131B907E818F8198850E944A19DC01CB019A8746
S1131BA0898789859A859E878D878D859E850197EE
S1131BB0F1F79E878D878F8598899DDE8F8598891B
S1131BC048E16CE7B8DE8F85988948E260E0B3DECF
S1131BD08F85988948E260E0AEDE8F85988948E277
S1131BE06EE1A9DE8F85988948E268E1A4DE8F85DD
S1131BF0988948E264E19FDE8F85988948E262E132
S1131C009ADE8F85988948E261E095DE8F85988910
S1131C1048E260E090DE8F85988948E260E08BDEE0
S1131C208F85988957DE60960FB6F894DEBF0FBE95
S1131C30CDBFDF91CF910895CF93DF93CDB7DEB7BA
S1131C40EA970FB6F894DEBF0FBECDBF9AAF89AF47
S1131C5089AD9AAD50DE89AD9AAD48E16CE76BDE93
S1131C6089AD9AAD48E260E066DE89AD9AAD48E29E
S1131C7068E361DE80E090E0A8ECB2E489839A83B3
S1131C80AB83BC8320E030E04AE753E469817A8186
S1131C908B819C810E942C1ADC01CB018D839E8355
S1131CA0AF83B88720E030E040E85FE36D817E8158
S1131CB08F8198850E94DE1888232CF481E090E0BF
S1131CC09A8789873FC020E03FEF4FE757E46D8153
S1131CD07E818F8198850E94281A18164CF520E081
S1131CE030E040E251E469817A818B819C810E94D9
S1131CF02C1ADC01CB01BC01CD010E944A19DC0184
S1131D00CB019A8789870FC089E190E09C878B87F4
S1131D108B859C850197F1F79C878B8789859A85AC
S1131D2001979A87898789859A85892B69F714C0D1
S1131D306D817E818F8198850E944A19DC01CB01D7
S1131D409A87898789859A859E878D878D859E85C3
S1131D500197F1F79E878D8789AD9AAD48E269E3D3
S1131D60EADD80E090E0A8ECB2E48F87988BA98B41
S1131D70BA8B20E030E04AE753E46F85788989899B
S1131D809A890E942C1ADC01CB018B8B9C8BAD8B26
S1131D90BE8B20E030E040E85FE36B897C898D896D
S1131DA09E890E94DE1888232CF481E090E0988FAD
S1131DB08F8B3FC020E03FEF4FE757E46B897C896E
S1131DC08D899E890E94281A18164CF520E030E06F
S1131DD040E251E46F85788989899A890E942C1A96
S1131DE0DC01CB01BC01CD010E944A19DC01CB010D
S1131DF0988F8F8B0FC089E190E09A8F898F898D9E
S1131E009A8D0197F1F79A8F898F8F89988D019711
S1131E10988F8F8B8F89988D892B69F714C06B8964
S1131E207C898D899E890E944A19DC01CB01988F97
S1131E308F8B8F89988D9C8F8B8F8B8D9C8D019729
S1131E40F1F79C8F8B8F89AD9AAD48E264E173DD25
S1131E5089AD9AAD48E268E76EDD89AD9AAD48E296
S1131E606DE569DD89AD9AAD48E26DE664DD89AD65
S1131E709AAD48E26CE05FDD89AD9AAD48E261E07D
S1131E805ADD89AD9AAD48E266E055DD80E090E028
S1131E90A8ECB2E48D8F9E8FAF8FB8A320E030E022
S1131EA04AE753E46D8D7E8D8F8D98A10E942C1A84
S1131EB0DC01CB0189A39AA3ABA3BCA320E030E04F
S1131EC040E85FE369A17AA18BA19CA10E94DE187E
S1131ED088232CF481E090E09EA38DA33FC020E0F2
S1131EE03FEF4FE757E469A17AA18BA19CA10E941F
S1131EF0281A18164CF520E030E040E251E46D8DCC
S1131F007E8D8F8D98A10E942C1ADC01CB01BC011F
S1131F10CD010E944A19DC01CB019EA38DA30FC001
S1131F2089E190E098A78FA38FA198A50197F1F775
S1131F3098A78FA38DA19EA101979EA38DA38DA188
S1131F409EA1892B69F714C069A17AA18BA19CA1D8
S1131F500E944A19DC01CB019EA38DA38DA19EA1F1
S1131F609AA789A789A59AA50197F1F79AA789A79E
S1131F7089AD9AADAFDC89AD9AAD85DD89AD9AADF9
S1131F80BADC89AD9AAD48E16CE7D5DC89AD9AAD90
S1131F9048E260E0D0DC89AD9AAD48E269E3CBDC8D
S1131FA089AD9AAD48E261E0C6DC89AD9AAD92DCB8
S1131FB080E090E0A8ECB2E48BA79CA7ADA7BEA7F5
S1131FC020E030E04AE753E46BA57CA58DA59EA5EF
S1131FD00E942C1ADC01CB018FA798ABA9ABBAAB3A
S1131FE020E030E040E85FE36FA578A989A99AA9C9
S1131FF00E94DE1888232CF481E090E09CAB8BAB2C
S11320003FC020E03FEF4FE757E46FA578A989A9C7
S11320109AA90E94281A18164CF520E030E040E2F4
S113202051E46BA57CA58DA59EA50E942C1ADC010C
S1132030CB01BC01CD010E944A19DC01CB019CAB50
S11320408BAB0FC089E190E09EAB8DAB8DA99EA9AF
S11320500197F1F79EAB8DAB8BA99CA901979CAB23
S11320608BAB8BA99CA9892B69F714C06FA578A9A0
S113207089A99AA90E944A19DC01CB019CAB8BABBC
S11320808BA99CA998AF8FAB8FA998AD0197F1F755
S113209098AF8FABEA960FB6F894DEBF0FBECDBFF4
S11320A0DF91CF910895CF93DF93CDB7DEB7E0975B
S11320B00FB6F894DEBF0FBECDBF98AB8FA780E1FB
S11320C0E7E3F1E0DE011F9601900D928A95E1F7B6
S11320D080E1E7E4F1E0DE015F9601900D928A95DC
S11320E0E1F79E01215F3F4F8FA598A940E0B90118
S11320F083D09E01215E3F4F8FA598A941E0B9018D
S11321007BD080E090E0AAE7B4E489839A83AB8330
S1132110BC8320E030E04AE753E469817A818B8113
S11321209C810E942C1ADC01CB018D839E83AF839A
S1132130B88720E030E040E85FE36D817E818F81E5
S113214098850E94DE1888232CF481E090E09A8719
S113215089873FC020E03FEF4FE757E46D817E81E0
S11321608F8198850E94281A18164CF520E030E0DB
S113217040E251E469817A818B819C810E942C1A0E
S1132180DC01CB01BC01CD010E944A19DC01CB0169
S11321909A8789870FC089E190E09C878B878B851C
S11321A09C850197F1F79C878B8789859A85019790
S11321B09A87898789859A85892B69F714C06D81E7
S11321C07E818F8198850E944A19DC01CB019A8710
S11321D0898789859A859E878D878D859E850197B8
S11321E0F1F79E878D87E0960FB6F894DEBF0FBE99
S11321F0CDBFDF91CF910895CF93DF93CDB7DEB7F5
S1132200A1970FB6F894DEBF0FBECDBF9E8F8D8F02
S113221078A36F8F49A389A1882309F079C08D8D94
S11322209E8DEFDB80E090E0A0E2B1E489839A83A5
S1132230AB83BC8320E030E04AE753E469817A81D0
S11322408B819C810E942C1ADC01CB018D839E839F
S1132250AF83B88720E030E040E85FE36D817E81A2
S11322608F819885ABD788232CF481E090E09A87FE
S113227089873DC020E03FEF4FE757E46D817E81C1
S11322808F8198850E94281A181644F520E030E0C2
S113229040E251E469817A818B819C810E942C1AED
S11322A0DC01CB01BC01CD01F5D7DC01CB019A8760
S11322B089870FC089E190E09C878B878B859C85FB
S11322C00197F1F79C878B8789859A8501979A876F
S11322D0898789859A85892B69F713C06D817E81E9
S11322E08F819885D7D7DC01CB019A878987898527
S11322F09A859E878D878D859E850197F1F79E87A8
S11323008D872F8D38A18D8D9E8DB9013CDB7CC0CE
S113231089A1813009F078C08D8D9E8D93DB80E09A
S113232090E0A0E2B1E48F87988BA98BBA8B20E070
S113233030E04AE753E46F85788989899A890E9455
S11323402C1ADC01CB018B8B9C8BAD8BBE8B20E0DC
S113235030E040E85FE36B897C898D899E892ED7C4
S113236088232CF481E090E0988F8F8B3DC020E08F
S11323703FEF4FE757E46B897C898D899E890E94E2
S1132380281A181644F520E030E040E251E46F8545
S1132390788989899A890E942C1ADC01CB01BC01B5
S11323A0CD0178D7DC01CB01988F8F8B0FC089E1E9
S11323B090E09A8F898F898D9A8D0197F1F79A8F82
S11323C0898F8F89988D0197988F8F8B8F89988D9E
S11323D0892B69F713C06B897C898D899E895AD7AB
S11323E0DC01CB01988F8F8B8F89988D9C8F8B8F7D
S11323F08B8D9C8D0197F1F79C8F8B8F2F8D38A13E
S11324008D8D9E8DB901BFDAA1960FB6F894DEBF0B
S11324100FBECDBFDF91CF910895CF93DF9300D04E
S1132420CDB7DEB79A83898380EB90E020EB30E070
S1132430F9012081296AFC01208380E890E020E8EA
S113244030E0F9012081296AFC01208389819A8185
S113245009D089819A8160E024D00F900F90DF9198
S1132460CF910895CF93DF9300D0CDB7DEB79A8391
S113247089838AE290E02AE230E0F9012081206F2A
S1132480FC01208381E890E021E0FC01208381EBC2
S113249090E021E0FC0120830F900F90DF91CF9119
S11324A008950F931F93CF93DF9300D01F92CDB75E
S11324B0DEB79A8389836B838B81853608F084E643
S11324C08B8308E810E08B81882F90E0A0E0B0E0D7
S11324D0BC01CD010BD7DC01CB0120E030E048EC9E
S11324E052E4BC01CD016ED6DC01CB0120E030E02A
S11324F04FE753E4BC01CD01AFD7DC01CB01BC01F4
S1132500CD01C8D6DC01CB01F801918380830AE8B0
S113251010E08B81882F90E0A0E0B0E0BC01CD01F9
S1132520E5D6DC01CB0120E030E048EC52E4BC010C
S1132530CD0148D6DC01CB0120E030E04FE753E485
S1132540BC01CD0189D7DC01CB01BC01CD01A2D6F0
S1132550DC01CB01F8019183808303EB10E08B81D4
S1132560882F90E0A0E0B0E0BC01CD01BFD6DC0133
S1132570CB0120E030E048EC52E4BC01CD0122D68E
S1132580DC01CB0120E030E04FE753E4BC01CD0196
S113259063D7DC01CB01BC01CD017CD6DC01CB01CE
S11325A0F801808304EB10E08B81882F90E0A0E099
S11325B0B0E0BC01CD019AD6DC01CB0120E030E0D3
S11325C048EC52E4BC01CD01FDD5DC01CB0120E097
S11325D030E04FE753E4BC01CD013ED7DC01CB0131
S11325E0BC01CD0157D6DC01CB01F80180830F90EB
S11325F00F900F90DF91CF911F910F910895CF937A
S1132600DF93CDB7DEB72E970FB6F894DEBF0FBEBB
S1132610CDBF9E878D871B8284E08C831D8287E0DB
S1132620E7E5F1E0DE01169601900D928A95E1F757
S11326308D859E856AD0AE014D5F5F4F8D859E85E9
S113264021E030E06FE0EBD01A8219820EC069817C
S1132650AE014B5F5F4F8D859E8521E030E0DFD07A
S113266089819A8101969A83898389819A81419784
S113267070F3AE014C5F5F4F8D859E8521E030E0A5
S11326806FE0CDD09E012A5F3F4F8D859E85B901B5
S1132690AAD12E960FB6F894DEBF0FBECDBFDF9140
S11326A0CF910895CF93DF9300D0CDB7DEB79A834F
S11326B089838CE490E02CE430E0F90120812460EB
S11326C0FC01208385E290E025E230E0F9012081DD
S11326D02061FC0120830F900F90DF91CF9108952A
S11326E0CF93DF9300D0CDB7DEB79A83898385E299
S11326F090E025E230E0F90120812F7EFC01208367
S11327000F900F90DF91CF910895CF93DF9300D076
S11327101F92CDB7DEB79B838A8384E290E020EBDF
S1132720FC0120838CE490E021E5FC0120838DE40E
S113273090E0FC01808189838EE490E0FC0180813B
S113274089838A819B81CCDF0F900F900F90DF915A
S1132750CF910895CF93DF9300D01F92CDB7DEB70A
S11327609A8389836B838EE490E02B81FC01208320
S113277000008DE490E0FC0180818095881F88270B
S1132780881F8823B1F78EE490E0FC0180810F90CC
S11327900F900F90DF91CF9108950F931F93CF93D4
S11327A0DF93CDB7DEB727970FB6F894DEBF0FBE21
S11327B0CDBF9A8389836B835D834C833F832E8350
S11327C089819A816FDF89819A816B81C3DF0CC013
S11327D00C811D81C80101969D838C8389819A8116
S11327E060E0B8DFF80180838E819F819C012150D5
S11327F031093F832E8321E0892B09F420E0222331
S113280039F789819A816CDF27960FB6F894DEBF79
S11328100FBECDBFDF91CF911F910F910895CF933C
S1132820DF93CDB7DEB729970FB6F894DEBF0FBE9E
S1132830CDBF9C838B836D835F834E8339872887C9
S11328401A821982AE014E5F5F4F8B819C8121E019
S113285030E06FE0A2DF8A81882F90E083709927AF
S1132860892B89F08A818C7F89838B819C811ADFF3
S11328708B819C816FE86EDF8B819C8169816ADF2B
S11328808B819C812DDF8B819C810CDF8D8120E8E5
S1132890280F8B819C81622F5DDF0DC08E819F810B
S11328A09C012F5F3F4F3F832E83FC0120818B814E
S11328B09C81622F4FDF888599859C0121503109C5
S11328C03987288721E0892B09F420E0222331F776
S11328D08B819C8105DF8D818F3079F08B819C8188
S11328E0E1DE8B819C816FE835DF2A818B819C81BD
S11328F0622F30DF8B819C81F3DE29960FB6F8942A
S1132900DEBF0FBECDBFDF91CF9108952F923F92CE
S11329104F925F926F927F928F929F92AF92BF92EB
S1132920CF92DF92EF92FF920F931F93CF93DF9397
S1132930CDB7DEB760970FB6F894DEBF0FBECDBF3C
S1132940988B8F87AE01485F5F4F8F85988927E00A
S113295030E060E022DF27E0FE013896CE010196E8
S1132960DC0101900D922A95E1F760E0698150E065
S11329705A8140E04B8130E03C8120E02D8190E0A1
S11329809E8180E08F81262E352E442E532E622E7A
S1132990792E882EA22CB32CC42CD52CE62CF72C03
S11329A0082D192D2A2D3B2D4C2D5D2D6E2D7F2D9F
S11329B0802F912F60960FB6F894DEBF0FBECDBF67
S11329C0DF91CF911F910F91FF90EF90DF90CF9007
S11329D0BF90AF909F908F907F906F905F904F903B
S11329E03F902F900895CF93DF9300D000D0CDB7C0
S11329F0DEB79A8389837C836B834B815C81898175
S1132A009A8127E030E060E00ADF0F900F900F908A
S1132A100F90DF91CF910895CF92DF92EF92FF92C2
S1132A200F931F93CF93DF93CDB7DEB7A6970FB65F
S1132A30F894DEBF0FBECDBF9B8F8A8F0C8F1D8F86
S1132A402E8F3F8F48A359A36AA3FCA2EBA2DEA258
S1132A50CDA20DB71EB78DB79EB77C018DA19EA1E7
S1132A6001979D838C8301962DB73EB7281B390BA4
S1132A700FB6F8943EBF0FBE2DBF8DB79EB701961B
S1132A809F838E8380E188878885882F90E02DA19D
S1132A903EA1A901481B590BCA01969587959A87AF
S1132AA089871B821A820EC02E813F818A819B8175
S1132AB0820F931F20E2FC0120838A819B8101966F
S1132AC09B838A832A813B818DA19EA12817390784
S1132AD058F31C861B868D8D882F90E0807F992764
S1132AE09D5F82959295907F9827807F98279C017F
S1132AF08B859C85822B932B9C878B878D8D882F30
S1132B0090E08F709927C0969C018B859C85822BC1
S1132B10932B9C878B871E861D868E8D882F90E035
S1132B20807199279D5F82959295907F9827807FE9
S1132B3098279C018D859E85822B932B9E878D875C
S1132B408E8D882F90E08F709927C0969C018D857B
S1132B509E85822B932B9E878D878E8D882F90E068
S1132B60807699278034910519F481E4898302C021
S1132B7080E589831F86198A188A8F8D82958F70C4
S1132B80880F982F990F990F980F8F8D8F70890F39
S1132B908F878F85882339F08F85882F90E0019760
S1132BA0880F991F02C080E090E08E579E4FFC0171
S1132BB08081882F90E0998B888B8F85882341F0C2
S1132BC08F85882F90E00197880F991F019602C086
S1132BD081E090E08E579E4FFC018081882F90E029
S1132BE0982F88279C0188899989822B932B998B0C
S1132BF0888B8F85882331F08F85882F90E0880F0C
S1132C00991F02C082E090E08E579E4FFC018081A4
S1132C10882F90E09927882728893989822B932B3C
S1132C20998B888B1B8A1A8A1C8A1D8A1E8A1F8A82
S1132C3089A182958F70882F90E09927880F991F1A
S1132C409C01220F331F220F331F280F391F89A124
S1132C50882F90E08F709927820F931F9B8B8A8B0C
S1132C608A899B89892B49F02A893B89C901880F64
S1132C70991F820F931F039702C080E090E0825A4D
S1132C809E4FFC018081882F90E0A0E0B0E08C8B07
S1132C909D8BAE8BBF8B8A899B89892B49F02A89AE
S1132CA03B89C901880F991F820F931F029702C0A5
S1132CB081E090E0825A9E4FFC018081882F90E051
S1132CC0982F8827092E000CAA0BBB0B2C893D8951
S1132CD04E895F89822B932BA42BB52B8C8B9D8BD8
S1132CE0AE8BBF8B8A899B89892B49F02A893B89C2
S1132CF0C901880F991F820F931F019702C082E0B8
S1132D0090E0825A9E4FFC018081882F90E0A0E0E1
S1132D10B0E0DC01992788272C893D894E895F8999
S1132D20822B932BA42BB52B8C8B9D8BAE8BBF8BC3
S1132D30198E188E88A1882F90E0807F99279D5F37
S1132D4082959295907F9827807F98279C01888D03
S1132D50998D822B932B998F888F88A1882F90E04F
S1132D608F709927C0969C01888D998D822B932B07
S1132D70998F888F8D859E85892F9927482F2E813D
S1132D803F8189859A85820F931FFC014083898541
S1132D909A8501964D852E813F81820F931FFC01F8
S1132DA0408389859A8502962E813F81820F931FE5
S1132DB02AE3FC01208389859A8503962B853C852B
S1132DC0232F3327422F2E813F81820F931FFC0133
S1132DD0408389859A8504964B852E813F81820F95
S1132DE0931FFC01408389859A8505962E813F8136
S1132DF0820F931F2981FC01208389859A85069679
S1132E002E813F81820F931F2DE4FC01208389854D
S1132E109A8507962E813F81820F931F20E2FC0141
S1132E20208389859A85089648892E813F81820F5F
S1132E30931FFC01408389859A85099628893989DD
S1132E40232F3327422F2E813F81820F931FFC01B2
S1132E50408389859A850A962E813F81820F931F2C
S1132E602CE2FC01208389859A850B964C892E815E
S1132E703F81820F931FFC01408389859A859C01C1
S1132E80245F3F4F8C899D89AE89BF89892F9A2FF2
S1132E90AB2FBB27482F8E819F81820F931FFC018C
S1132EA0408389859A859C01235F3F4F8C899D8946
S1132EB0AE89BF89CD01AA27BB27482F8E819F8168
S1132EC0820F931FFC01408389859A850E96488D55
S1132ED02E813F81820F931FFC01408389859A854F
S1132EE00F96288D398D232F3327422F2E813F8132
S1132EF0820F931FFC0140832E813F814DA15EA16F
S1132F008BA19CA1B90176D30FB6F894FEBE0FBE77
S1132F10EDBE0FB6F8941EBF0FBE0DBFA6960FB63A
S1132F20F894DEBF0FBECDBFDF91CF911F910F91FB
S1132F30FF90EF90DF90CF900895CF93DF9300D070
S1132F4000D0CDB7DEB79B838A836C8319828C81D2
S1132F508230B1F48A819B8121E030E0AE014F5F81
S1132F605F4F6FE01ADC8981836089838A819B814A
S1132F7021E030E0AE014F5F5F4F6FE050DC31C0C5
S1132F808C818823B1F48A819B8121E030E0AE01F9
S1132F904F5F5F4F6FE001DC8981816089838A81A3
S1132FA09B8121E030E0AE014F5F5F4F6FE037DC83
S1132FB018C08C818130A9F48A819B8121E030E0A2
S1132FC0AE014F5F5F4F6FE0E8DB898182608983E8
S1132FD08A819B8121E030E0AE014F5F5F4F6FE05B
S1132FE01EDC0F900F900F900F90DF91CF910895FA
S1132FF0CF93DF9300D000D0CDB7DEB79B838A8315
S11330006C8319828C818230B1F48A819B8121E0A6
S113301030E0AE014F5F5F4F6FE0BFDB89818C7F93
S113302089838A819B8121E030E0AE014F5F5F4F4D
S11330306FE0F5DB31C08C818823B1F48A819B81F8
S113304021E030E0AE014F5F5F4F6FE0A6DB898186
S11330508E7F89838A819B8121E030E0AE014F5FBE
S11330605F4F6FE0DCDB18C08C818130A9F48A816A
S11330709B8121E030E0AE014F5F5F4F6FE08DDB5D
S113308089818D7F89838A819B8121E030E0AE0133
S11330904F5F5F4F6FE0C3DB0F900F900F900F9067
S11330A0DF91CF910895CF93DF9300D000D0CDB7B7
S11330B0DEB79B838A836C838C81882351F48A8155
S11330C09B8121E030E0AE014F5F5F4F67E065DB3D
S11330D022C08C81813051F48A819B8121E030E0CF
S11330E0AE014F5F5F4F6BE058DB15C08C818230BF
S11330F091F48A819B8121E030E0AE014F5F5F4F04
S113310067E04BDB8A819B8121E030E0AE014F5FB9
S11331105F4F6BE042DB0F900F900F900F90DF91A9
S1133120CF9108950F931F93CF93DF93CDB7DEB75D
S113313029970FB6F894DEBF0FBECDBF9B838A8359
S11331406C834D830E831F832887398719828D8171
S1133150882319F487E0898305C08D81882311F0C1
S11331608BE089838C81882351F4AE014A5F5F4FE1
S11331708A819B8124E030E069810FDB14C08C815B
S1133180882389F08A819B816D8132DFAE014A5F99
S11331905F4F8A819B8124E030E0698140DB8A8132
S11331A09B816D81CADE29960FB6F894DEBF0FBEEF
S11331B0CDBFDF91CF911F910F910895D4D008F422
S11331C081E008950CD00AC102D140F0F9D030F06A
S11331D021F45F3F19F0EBC0511134C1EEC00FD19F
S11331E098F39923C9F35523B1F3951B550BBB27CA
S11331F0AA2762177307840738F09F5F5F4F220F77
S1133200331F441FAA1FA9F333D00E2E3AF0E0E86F
S113321030D091505040E695001CCAF729D0FE2FBB
S113322027D0660F771F881FBB1F2617370748074D
S1133230AB07B0E809F0BB0B802DBF01FF27935803
S11332405F4F2AF09E3F510568F0B1C0FBC05F3F5D
S1133250ECF3983EDCF3869577956795B795F795EB
S11332609F5FC9F7880F911D9695879597F90895E3
S1133270E1E0660F771F881FBB1F6217730784077F
S1133280BA0720F0621B730B840BBA0BEE1F88F78E
S1133290E0950895BCD088F09F5790F0B92F9927F6
S11332A0B751A0F0D1F0660F771F881F991F1AF04D
S11332B0BA95C9F712C0B13081F0C3D0B1E0089516
S11332C0C0C0672F782F8827B85F39F0B93FCCF397
S11332D0869577956795B395D9F73EF49095809543
S11332E0709561957F4F8F4F9F4F0895E89409C063
S11332F097FB3EF490958095709561957F4F8F4F25
S11333009F4F9923A9F0F92F96E9BB279395F6953A
S1133310879577956795B795F111F8CFFAF4BB0FB8
S113332011F460FF1BC06F5F7F4F8F4F9F4F16C01C
S1133330882311F096E911C0772321F09EE8872FA6
S1133340762F05C0662371F096E8862F70E060E062
S11333502AF09A95660F771F881FDAF7880F9695DB
S1133360879597F90895990F0008550FAA0BE0E87F
S1133370FEEF16161706E807F907C0F01216130633
S1133380E407F50798F0621B730B840B950B39F473
S11333900A2661F0232B242B252B21F408950A26D9
S11333A009F4A140A6958FEF811D811D089597F919
S11333B09F6780E870E060E008959FEF80EC0895D7
S11333C000240A9416161706180609060895002400
S11333D00A9412161306140605060895092E03947A
S11333E0000C11F4882352F0BB0F40F4BF2B11F4EE
S11333F060FF04C06F5F7F4F8F4F9F4F089557FD4D
S11334009058440F551F59F05F3F71F04795880F4E
S113341097FB991F61F09F3F79F0879508951216E5
S113342013061406551FF2CF4695F1DF08C0161691
S113343017061806991FF1CF869571056105089442
S11334400895E894BB2766277727CB0197F9089559
S11334508ADF08F48FEF08950BD0C0CFB1DF28F0D6
S1133460B6DF18F0952309F0A2CFA7CF1124EACF35
S1133470C6DFA0F3959FD1F3950F50E0551F629FCF
S1133480F001729FBB27F00DB11D639FAA27F00DB9
S1133490B11DAA1F649F6627B00DA11D661F829FE0
S11334A02227B00DA11D621F739FB00DA11D621FC5
S11334B0839FA00D611D221F749F3327A00D611DE2
S11334C0231F849F600D211D822F762F6A2F1124C4
S11334D09F5750408AF0E1F088234AF0EE0FFF1F17
S11334E0BB1F661F771F881F91505040A9F79E3F4E
S11334F0510570F05CCFA6CF5F3FECF3983EDCF350
S1133500869577956795B795F795E7959F5FC1F78A
S1133510FE2B880F911D9695879597F9089597FB33
S1133520072E16F4009406D077FD08D046D007FC89
S113353005D03EF4909581959F4F089570956195BF
S11335407F4F0895A1E21A2EAA1BBB1BFD010DC0DB
S1133550AA1FBB1FEE1FFF1FA217B307E407F5073F
S113356020F0A21BB30BE40BF50B661F771F881F1B
S1133570991F1A9469F760957095809590959B01B1
S1133580AC01BD01CF010895A29FB001B39FC0015A
S1133590A39F700D811D1124911DB29F700D811D7B
S11335A01124911D0895F0DFA59F900DB49F900DF7
S11335B0A49F800D911D11240895AA1BBB1B51E1EA
S11335C007C0AA1FBB1FA617B70710F0A61BB70B8F
S11335D0881F991F5A95A9F780959095BC01CD0134
S11335E00895EE0FFF1F0024001C0BBE0790F691F8
S11335F0E02D0994FB01DC0102C001900D924150C1
S11336005040D8F70895FC0101900020E9F7809517
S10F361090958E0F9F1F0895F894FFCF33
S113361C50597202110416414C524D000000000026
S113362C000000000000004241542020250000004E
S113363C000000000000004F505453000000000034
S113364C00000000000000202D2D204865616473EB
S113365C557021202D2D20536C65657020456E7698
S113366C69726F6D656E74000052010101004A416C
S113367C4E4645424D41524150524D41594A554E88
S113368C4A554C4155475345504F43544E4F56445D
S113369C454353554D4F5455574554484652534141
S9030000FC
